{
  "contractName": "Router",
  "abi": [
    {
      "inputs": [
        {
          "internalType": "contract IUniswapV3Pool",
          "name": "pool",
          "type": "address"
        },
        {
          "internalType": "int24",
          "name": "tickLower",
          "type": "int24"
        },
        {
          "internalType": "int24",
          "name": "tickUpper",
          "type": "int24"
        },
        {
          "internalType": "uint128",
          "name": "amount",
          "type": "uint128"
        }
      ],
      "name": "mint",
      "outputs": [
        {
          "internalType": "uint256",
          "name": "",
          "type": "uint256"
        },
        {
          "internalType": "uint256",
          "name": "",
          "type": "uint256"
        }
      ],
      "stateMutability": "nonpayable",
      "type": "function"
    },
    {
      "inputs": [
        {
          "internalType": "contract IUniswapV3Pool",
          "name": "pool",
          "type": "address"
        },
        {
          "internalType": "bool",
          "name": "zeroForOne",
          "type": "bool"
        },
        {
          "internalType": "int256",
          "name": "amountSpecified",
          "type": "int256"
        }
      ],
      "name": "swap",
      "outputs": [
        {
          "internalType": "int256",
          "name": "",
          "type": "int256"
        },
        {
          "internalType": "int256",
          "name": "",
          "type": "int256"
        }
      ],
      "stateMutability": "nonpayable",
      "type": "function"
    },
    {
      "inputs": [
        {
          "internalType": "uint256",
          "name": "amount0Owed",
          "type": "uint256"
        },
        {
          "internalType": "uint256",
          "name": "amount1Owed",
          "type": "uint256"
        },
        {
          "internalType": "bytes",
          "name": "data",
          "type": "bytes"
        }
      ],
      "name": "uniswapV3MintCallback",
      "outputs": [],
      "stateMutability": "nonpayable",
      "type": "function"
    },
    {
      "inputs": [
        {
          "internalType": "int256",
          "name": "amount0Delta",
          "type": "int256"
        },
        {
          "internalType": "int256",
          "name": "amount1Delta",
          "type": "int256"
        },
        {
          "internalType": "bytes",
          "name": "data",
          "type": "bytes"
        }
      ],
      "name": "uniswapV3SwapCallback",
      "outputs": [],
      "stateMutability": "nonpayable",
      "type": "function"
    }
  ],
  "bytecode": "0x608060405234801561001057600080fd5b50610e34806100206000396000f3fe608060405234801561001057600080fd5b506004361061004c5760003560e01c80635b71a46e14610051578063b8cca34e146100c6578063d34879971461015b578063fa461e33146101e8575b600080fd5b6100a96004803603606081101561006757600080fd5b81019080803573ffffffffffffffffffffffffffffffffffffffff16906020019092919080351515906020019092919080359060200190929190505050610275565b604051808381526020018281526020019250505060405180910390f35b61013e600480360360808110156100dc57600080fd5b81019080803573ffffffffffffffffffffffffffffffffffffffff169060200190929190803560020b9060200190929190803560020b906020019092919080356fffffffffffffffffffffffffffffffff16906020019092919050505061042e565b604051808381526020018281526020019250505060405180910390f35b6101e66004803603606081101561017157600080fd5b810190808035906020019092919080359060200190929190803590602001906401000000008111156101a257600080fd5b8201836020820111156101b457600080fd5b803590602001918460018302840111640100000000831117156101d657600080fd5b9091929391929390505050610719565b005b610273600480360360608110156101fe57600080fd5b8101908080359060200190929190803590602001909291908035906020019064010000000081111561022f57600080fd5b82018360208201111561024157600080fd5b8035906020019184600183028401116401000000008311171561026357600080fd5b909192939192939050505061072b565b005b6000808473ffffffffffffffffffffffffffffffffffffffff1663128acb08338686886102b957600173fffd8963efd1fc6a506488495d951d5263988d26036102c3565b60016401000276a3015b33604051602001808273ffffffffffffffffffffffffffffffffffffffff1681526020019150506040516020818303038152906040526040518663ffffffff1660e01b8152600401808673ffffffffffffffffffffffffffffffffffffffff16815260200185151581526020018481526020018373ffffffffffffffffffffffffffffffffffffffff16815260200180602001828103825283818151815260200191508051906020019080838360005b8381101561038e578082015181840152602081019050610373565b50505050905090810190601f1680156103bb5780820380516001836020036101000a031916815260200191505b5096505050505050506040805180830381600087803b1580156103dd57600080fd5b505af11580156103f1573d6000803e3d6000fd5b505050506040513d604081101561040757600080fd5b81019080805190602001909291908051906020019092919050505091509150935093915050565b60008060008673ffffffffffffffffffffffffffffffffffffffff1663d0c93a7c6040518163ffffffff1660e01b815260040160206040518083038186803b15801561047957600080fd5b505afa15801561048d573d6000803e3d6000fd5b505050506040513d60208110156104a357600080fd5b8101908080519060200190929190505050905060008160020b8760020b816104c757fe5b0760020b14610521576040517f08c379a000000000000000000000000000000000000000000000000000000000815260040180806020018281038252602b815260200180610d59602b913960400191505060405180910390fd5b60008160020b8660020b8161053257fe5b0760020b1461058c576040517f08c379a000000000000000000000000000000000000000000000000000000000815260040180806020018281038252602b815260200180610daa602b913960400191505060405180910390fd5b8673ffffffffffffffffffffffffffffffffffffffff16633c8a7d8d3388888833604051602001808273ffffffffffffffffffffffffffffffffffffffff1681526020019150506040516020818303038152906040526040518663ffffffff1660e01b8152600401808673ffffffffffffffffffffffffffffffffffffffff1681526020018560020b81526020018460020b8152602001836fffffffffffffffffffffffffffffffff16815260200180602001828103825283818151815260200191508051906020019080838360005b8381101561067757808201518184015260208101905061065c565b50505050905090810190601f1680156106a45780820380516001836020036101000a031916815260200191505b5096505050505050506040805180830381600087803b1580156106c657600080fd5b505af11580156106da573d6000803e3d6000fd5b505050506040513d60408110156106f057600080fd5b810190808051906020019092919080519060200190929190505050925092505094509492505050565b61072584848484610767565b50505050565b600080851361073b57600061073d565b845b9050600080851361074f576000610751565b845b905061075f82828686610767565b505050505050565b600033905060008383602081101561077e57600080fd5b81019080803573ffffffffffffffffffffffffffffffffffffffff16906020019092919050505090506108548133888573ffffffffffffffffffffffffffffffffffffffff16630dfe16816040518163ffffffff1660e01b815260040160206040518083038186803b1580156107f357600080fd5b505afa158015610807573d6000803e3d6000fd5b505050506040513d602081101561081d57600080fd5b810190808051906020019092919050505073ffffffffffffffffffffffffffffffffffffffff16610909909392919063ffffffff16565b6109018133878573ffffffffffffffffffffffffffffffffffffffff1663d21220a76040518163ffffffff1660e01b815260040160206040518083038186803b1580156108a057600080fd5b505afa1580156108b4573d6000803e3d6000fd5b505050506040513d60208110156108ca57600080fd5b810190808051906020019092919050505073ffffffffffffffffffffffffffffffffffffffff16610909909392919063ffffffff16565b505050505050565b6109c4846323b872dd60e01b858585604051602401808473ffffffffffffffffffffffffffffffffffffffff1681526020018373ffffffffffffffffffffffffffffffffffffffff1681526020018281526020019350505050604051602081830303815290604052907bffffffffffffffffffffffffffffffffffffffffffffffffffffffff19166020820180517bffffffffffffffffffffffffffffffffffffffffffffffffffffffff83818316178352505050506109ca565b50505050565b6000610a2c826040518060400160405280602081526020017f5361666545524332303a206c6f772d6c6576656c2063616c6c206661696c65648152508573ffffffffffffffffffffffffffffffffffffffff16610ab99092919063ffffffff16565b9050600081511115610ab457808060200190516020811015610a4d57600080fd5b8101908080519060200190929190505050610ab3576040517f08c379a000000000000000000000000000000000000000000000000000000000815260040180806020018281038252602a815260200180610dd5602a913960400191505060405180910390fd5b5b505050565b6060610ac88484600085610ad1565b90509392505050565b606082471015610b2c576040517f08c379a0000000000000000000000000000000000000000000000000000000008152600401808060200182810382526026815260200180610d846026913960400191505060405180910390fd5b610b3585610c79565b610ba7576040517f08c379a000000000000000000000000000000000000000000000000000000000815260040180806020018281038252601d8152602001807f416464726573733a2063616c6c20746f206e6f6e2d636f6e747261637400000081525060200191505060405180910390fd5b6000808673ffffffffffffffffffffffffffffffffffffffff1685876040518082805190602001908083835b60208310610bf65780518252602082019150602081019050602083039250610bd3565b6001836020036101000a03801982511681845116808217855250505050505090500191505060006040518083038185875af1925050503d8060008114610c58576040519150601f19603f3d011682016040523d82523d6000602084013e610c5d565b606091505b5091509150610c6d828286610c8c565b92505050949350505050565b600080823b905060008111915050919050565b60608315610c9c57829050610d51565b600083511115610caf5782518084602001fd5b816040517f08c379a00000000000000000000000000000000000000000000000000000000081526004018080602001828103825283818151815260200191508051906020019080838360005b83811015610d16578082015181840152602081019050610cfb565b50505050905090810190601f168015610d435780820380516001836020036101000a031916815260200191505b509250505060405180910390fd5b939250505056fe7469636b4c6f776572206d7573742062652061206d756c7469706c65206f66207469636b53706163696e67416464726573733a20696e73756666696369656e742062616c616e636520666f722063616c6c7469636b5570706572206d7573742062652061206d756c7469706c65206f66207469636b53706163696e675361666545524332303a204552433230206f7065726174696f6e20646964206e6f742073756363656564a2646970667358221220e10c70457e29eec72b0ad670fb1ed5206af82637d6293c9dee71b8e56aec40c564736f6c63430007060033",
  "immutableReferences": {},
  "source": "// SPDX-License-Identifier: Unlicense\r\n\r\npragma solidity 0.7.6;\r\n\r\nimport \"@openzeppelin/contracts/token/ERC20/SafeERC20.sol\";\r\n\r\nimport \"@uniswap/v3-core/contracts/interfaces/IUniswapV3Pool.sol\";\r\nimport \"@uniswap/v3-core/contracts/interfaces/callback/IUniswapV3MintCallback.sol\";\r\nimport \"@uniswap/v3-core/contracts/interfaces/callback/IUniswapV3SwapCallback.sol\";\r\nimport \"@uniswap/v3-core/contracts/libraries/TickMath.sol\";\r\n\r\n/**\r\n * @title  Router\r\n * @dev    DO NOT USE IN PRODUCTION. This is only intended to be used for\r\n *         tests and lacks slippage and callback caller checks.\r\n */\r\ncontract Router is IUniswapV3MintCallback, IUniswapV3SwapCallback {\r\n    using SafeERC20 for IERC20;\r\n\r\n    function mint(\r\n        IUniswapV3Pool pool,\r\n        int24 tickLower,\r\n        int24 tickUpper,\r\n        uint128 amount\r\n    ) external returns (uint256, uint256) {\r\n        int24 tickSpacing = pool.tickSpacing();\r\n        require(tickLower % tickSpacing == 0, \"tickLower must be a multiple of tickSpacing\");\r\n        require(tickUpper % tickSpacing == 0, \"tickUpper must be a multiple of tickSpacing\");\r\n        return pool.mint(msg.sender, tickLower, tickUpper, amount, abi.encode(msg.sender));\r\n    }\r\n\r\n    function swap(\r\n        IUniswapV3Pool pool,\r\n        bool zeroForOne,\r\n        int256 amountSpecified\r\n    ) external returns (int256, int256) {\r\n        return\r\n            pool.swap(\r\n                msg.sender,\r\n                zeroForOne,\r\n                amountSpecified,\r\n                zeroForOne ? TickMath.MIN_SQRT_RATIO + 1 : TickMath.MAX_SQRT_RATIO - 1,\r\n                abi.encode(msg.sender)\r\n            );\r\n    }\r\n\r\n    function uniswapV3MintCallback(\r\n        uint256 amount0Owed,\r\n        uint256 amount1Owed,\r\n        bytes calldata data\r\n    ) external override {\r\n        _callback(amount0Owed, amount1Owed, data);\r\n    }\r\n\r\n    function uniswapV3SwapCallback(\r\n        int256 amount0Delta,\r\n        int256 amount1Delta,\r\n        bytes calldata data\r\n    ) external override {\r\n        uint256 amount0 = amount0Delta > 0 ? uint256(amount0Delta) : 0;\r\n        uint256 amount1 = amount1Delta > 0 ? uint256(amount1Delta) : 0;\r\n        _callback(amount0, amount1, data);\r\n    }\r\n\r\n    function _callback(\r\n        uint256 amount0,\r\n        uint256 amount1,\r\n        bytes calldata data\r\n    ) internal {\r\n        IUniswapV3Pool pool = IUniswapV3Pool(msg.sender);\r\n        address payer = abi.decode(data, (address));\r\n\r\n        IERC20(pool.token0()).safeTransferFrom(payer, msg.sender, amount0);\r\n        IERC20(pool.token1()).safeTransferFrom(payer, msg.sender, amount1);\r\n    }\r\n}\r\n",
  "sourcePath": "C:\\Users\\admin\\Documents\\smart_contract_tasks\\uniswap-v3-deltafi\\contracts\\test\\Router.sol",
  "compiler": {
    "name": "solc",
    "version": "0.7.6+commit.7338295f.Emscripten.clang"
  },
  "schemaVersion": "3.4.2",
  "updatedAt": "2021-08-18T13:11:40.463Z",
  "devdoc": {
    "details": "DO NOT USE IN PRODUCTION. This is only intended to be used for         tests and lacks slippage and callback caller checks.",
    "kind": "dev",
    "methods": {
      "uniswapV3MintCallback(uint256,uint256,bytes)": {
        "details": "In the implementation you must pay the pool tokens owed for the minted liquidity. The caller of this method must be checked to be a UniswapV3Pool deployed by the canonical UniswapV3Factory.",
        "params": {
          "amount0Owed": "The amount of token0 due to the pool for the minted liquidity",
          "amount1Owed": "The amount of token1 due to the pool for the minted liquidity",
          "data": "Any data passed through by the caller via the IUniswapV3PoolActions#mint call"
        }
      },
      "uniswapV3SwapCallback(int256,int256,bytes)": {
        "details": "In the implementation you must pay the pool tokens owed for the swap. The caller of this method must be checked to be a UniswapV3Pool deployed by the canonical UniswapV3Factory. amount0Delta and amount1Delta can both be 0 if no tokens were swapped.",
        "params": {
          "amount0Delta": "The amount of token0 that was sent (negative) or must be received (positive) by the pool by the end of the swap. If positive, the callback must send that amount of token0 to the pool.",
          "amount1Delta": "The amount of token1 that was sent (negative) or must be received (positive) by the pool by the end of the swap. If positive, the callback must send that amount of token1 to the pool.",
          "data": "Any data passed through by the caller via the IUniswapV3PoolActions#swap call"
        }
      }
    },
    "title": "Router",
    "version": 1
  },
  "userdoc": {
    "kind": "user",
    "methods": {
      "uniswapV3MintCallback(uint256,uint256,bytes)": {
        "notice": "Called to `msg.sender` after minting liquidity to a position from IUniswapV3Pool#mint."
      },
      "uniswapV3SwapCallback(int256,int256,bytes)": {
        "notice": "Called to `msg.sender` after executing a swap via IUniswapV3Pool#swap."
      }
    },
    "version": 1
  }
}