{
  "contractName": "UniswapV3Vault",
  "abi": [
    {
      "inputs": [
        {
          "internalType": "address",
          "name": "_pool",
          "type": "address"
        },
        {
          "internalType": "uint256",
          "name": "_protocolFee",
          "type": "uint256"
        },
        {
          "internalType": "uint256",
          "name": "_maxTotalSupply",
          "type": "uint256"
        },
        {
          "internalType": "address",
          "name": "_governance",
          "type": "address"
        }
      ],
      "stateMutability": "nonpayable",
      "type": "constructor"
    },
    {
      "anonymous": false,
      "inputs": [
        {
          "indexed": true,
          "internalType": "address",
          "name": "owner",
          "type": "address"
        },
        {
          "indexed": true,
          "internalType": "address",
          "name": "spender",
          "type": "address"
        },
        {
          "indexed": false,
          "internalType": "uint256",
          "name": "value",
          "type": "uint256"
        }
      ],
      "name": "Approval",
      "type": "event"
    },
    {
      "anonymous": false,
      "inputs": [
        {
          "indexed": false,
          "internalType": "uint256",
          "name": "feesToVault0",
          "type": "uint256"
        },
        {
          "indexed": false,
          "internalType": "uint256",
          "name": "feesToVault1",
          "type": "uint256"
        },
        {
          "indexed": false,
          "internalType": "uint256",
          "name": "feesToProtocol0",
          "type": "uint256"
        },
        {
          "indexed": false,
          "internalType": "uint256",
          "name": "feesToProtocol1",
          "type": "uint256"
        }
      ],
      "name": "CollectFees",
      "type": "event"
    },
    {
      "anonymous": false,
      "inputs": [
        {
          "indexed": true,
          "internalType": "address",
          "name": "sender",
          "type": "address"
        },
        {
          "indexed": true,
          "internalType": "address",
          "name": "to",
          "type": "address"
        },
        {
          "indexed": false,
          "internalType": "uint256",
          "name": "shares",
          "type": "uint256"
        },
        {
          "indexed": false,
          "internalType": "uint256",
          "name": "amount0",
          "type": "uint256"
        },
        {
          "indexed": false,
          "internalType": "uint256",
          "name": "amount1",
          "type": "uint256"
        }
      ],
      "name": "Deposit",
      "type": "event"
    },
    {
      "anonymous": false,
      "inputs": [
        {
          "indexed": false,
          "internalType": "int24",
          "name": "tick",
          "type": "int24"
        },
        {
          "indexed": false,
          "internalType": "uint256",
          "name": "totalAmount0",
          "type": "uint256"
        },
        {
          "indexed": false,
          "internalType": "uint256",
          "name": "totalAmount1",
          "type": "uint256"
        },
        {
          "indexed": false,
          "internalType": "uint256",
          "name": "totalSupply",
          "type": "uint256"
        }
      ],
      "name": "Snapshot",
      "type": "event"
    },
    {
      "anonymous": false,
      "inputs": [
        {
          "indexed": true,
          "internalType": "address",
          "name": "from",
          "type": "address"
        },
        {
          "indexed": true,
          "internalType": "address",
          "name": "to",
          "type": "address"
        },
        {
          "indexed": false,
          "internalType": "uint256",
          "name": "value",
          "type": "uint256"
        }
      ],
      "name": "Transfer",
      "type": "event"
    },
    {
      "anonymous": false,
      "inputs": [
        {
          "indexed": true,
          "internalType": "address",
          "name": "sender",
          "type": "address"
        },
        {
          "indexed": true,
          "internalType": "address",
          "name": "to",
          "type": "address"
        },
        {
          "indexed": false,
          "internalType": "uint256",
          "name": "shares",
          "type": "uint256"
        },
        {
          "indexed": false,
          "internalType": "uint256",
          "name": "amount0",
          "type": "uint256"
        },
        {
          "indexed": false,
          "internalType": "uint256",
          "name": "amount1",
          "type": "uint256"
        }
      ],
      "name": "Withdraw",
      "type": "event"
    },
    {
      "inputs": [],
      "name": "accruedProtocolFees0",
      "outputs": [
        {
          "internalType": "uint256",
          "name": "",
          "type": "uint256"
        }
      ],
      "stateMutability": "view",
      "type": "function"
    },
    {
      "inputs": [],
      "name": "accruedProtocolFees1",
      "outputs": [
        {
          "internalType": "uint256",
          "name": "",
          "type": "uint256"
        }
      ],
      "stateMutability": "view",
      "type": "function"
    },
    {
      "inputs": [
        {
          "internalType": "address",
          "name": "owner",
          "type": "address"
        },
        {
          "internalType": "address",
          "name": "spender",
          "type": "address"
        }
      ],
      "name": "allowance",
      "outputs": [
        {
          "internalType": "uint256",
          "name": "",
          "type": "uint256"
        }
      ],
      "stateMutability": "view",
      "type": "function"
    },
    {
      "inputs": [
        {
          "internalType": "address",
          "name": "spender",
          "type": "address"
        },
        {
          "internalType": "uint256",
          "name": "amount",
          "type": "uint256"
        }
      ],
      "name": "approve",
      "outputs": [
        {
          "internalType": "bool",
          "name": "",
          "type": "bool"
        }
      ],
      "stateMutability": "nonpayable",
      "type": "function"
    },
    {
      "inputs": [
        {
          "internalType": "address",
          "name": "account",
          "type": "address"
        }
      ],
      "name": "balanceOf",
      "outputs": [
        {
          "internalType": "uint256",
          "name": "",
          "type": "uint256"
        }
      ],
      "stateMutability": "view",
      "type": "function"
    },
    {
      "inputs": [],
      "name": "baseLower",
      "outputs": [
        {
          "internalType": "int24",
          "name": "",
          "type": "int24"
        }
      ],
      "stateMutability": "view",
      "type": "function"
    },
    {
      "inputs": [],
      "name": "baseUpper",
      "outputs": [
        {
          "internalType": "int24",
          "name": "",
          "type": "int24"
        }
      ],
      "stateMutability": "view",
      "type": "function"
    },
    {
      "inputs": [],
      "name": "decimals",
      "outputs": [
        {
          "internalType": "uint8",
          "name": "",
          "type": "uint8"
        }
      ],
      "stateMutability": "view",
      "type": "function"
    },
    {
      "inputs": [
        {
          "internalType": "address",
          "name": "spender",
          "type": "address"
        },
        {
          "internalType": "uint256",
          "name": "subtractedValue",
          "type": "uint256"
        }
      ],
      "name": "decreaseAllowance",
      "outputs": [
        {
          "internalType": "bool",
          "name": "",
          "type": "bool"
        }
      ],
      "stateMutability": "nonpayable",
      "type": "function"
    },
    {
      "inputs": [],
      "name": "governance",
      "outputs": [
        {
          "internalType": "address",
          "name": "",
          "type": "address"
        }
      ],
      "stateMutability": "view",
      "type": "function"
    },
    {
      "inputs": [
        {
          "internalType": "address",
          "name": "spender",
          "type": "address"
        },
        {
          "internalType": "uint256",
          "name": "addedValue",
          "type": "uint256"
        }
      ],
      "name": "increaseAllowance",
      "outputs": [
        {
          "internalType": "bool",
          "name": "",
          "type": "bool"
        }
      ],
      "stateMutability": "nonpayable",
      "type": "function"
    },
    {
      "inputs": [],
      "name": "limitLower",
      "outputs": [
        {
          "internalType": "int24",
          "name": "",
          "type": "int24"
        }
      ],
      "stateMutability": "view",
      "type": "function"
    },
    {
      "inputs": [],
      "name": "limitUpper",
      "outputs": [
        {
          "internalType": "int24",
          "name": "",
          "type": "int24"
        }
      ],
      "stateMutability": "view",
      "type": "function"
    },
    {
      "inputs": [],
      "name": "manager",
      "outputs": [
        {
          "internalType": "address",
          "name": "",
          "type": "address"
        }
      ],
      "stateMutability": "view",
      "type": "function"
    },
    {
      "inputs": [],
      "name": "maxTotalSupply",
      "outputs": [
        {
          "internalType": "uint256",
          "name": "",
          "type": "uint256"
        }
      ],
      "stateMutability": "view",
      "type": "function"
    },
    {
      "inputs": [],
      "name": "name",
      "outputs": [
        {
          "internalType": "string",
          "name": "",
          "type": "string"
        }
      ],
      "stateMutability": "view",
      "type": "function"
    },
    {
      "inputs": [],
      "name": "pendingGovernance",
      "outputs": [
        {
          "internalType": "address",
          "name": "",
          "type": "address"
        }
      ],
      "stateMutability": "view",
      "type": "function"
    },
    {
      "inputs": [],
      "name": "pool",
      "outputs": [
        {
          "internalType": "contract IUniswapV3Pool",
          "name": "",
          "type": "address"
        }
      ],
      "stateMutability": "view",
      "type": "function"
    },
    {
      "inputs": [],
      "name": "protocolFee",
      "outputs": [
        {
          "internalType": "uint256",
          "name": "",
          "type": "uint256"
        }
      ],
      "stateMutability": "view",
      "type": "function"
    },
    {
      "inputs": [],
      "name": "symbol",
      "outputs": [
        {
          "internalType": "string",
          "name": "",
          "type": "string"
        }
      ],
      "stateMutability": "view",
      "type": "function"
    },
    {
      "inputs": [],
      "name": "tickSpacing",
      "outputs": [
        {
          "internalType": "int24",
          "name": "",
          "type": "int24"
        }
      ],
      "stateMutability": "view",
      "type": "function"
    },
    {
      "inputs": [],
      "name": "token0",
      "outputs": [
        {
          "internalType": "contract IERC20",
          "name": "",
          "type": "address"
        }
      ],
      "stateMutability": "view",
      "type": "function"
    },
    {
      "inputs": [],
      "name": "token1",
      "outputs": [
        {
          "internalType": "contract IERC20",
          "name": "",
          "type": "address"
        }
      ],
      "stateMutability": "view",
      "type": "function"
    },
    {
      "inputs": [],
      "name": "totalSupply",
      "outputs": [
        {
          "internalType": "uint256",
          "name": "",
          "type": "uint256"
        }
      ],
      "stateMutability": "view",
      "type": "function"
    },
    {
      "inputs": [
        {
          "internalType": "address",
          "name": "recipient",
          "type": "address"
        },
        {
          "internalType": "uint256",
          "name": "amount",
          "type": "uint256"
        }
      ],
      "name": "transfer",
      "outputs": [
        {
          "internalType": "bool",
          "name": "",
          "type": "bool"
        }
      ],
      "stateMutability": "nonpayable",
      "type": "function"
    },
    {
      "inputs": [
        {
          "internalType": "address",
          "name": "sender",
          "type": "address"
        },
        {
          "internalType": "address",
          "name": "recipient",
          "type": "address"
        },
        {
          "internalType": "uint256",
          "name": "amount",
          "type": "uint256"
        }
      ],
      "name": "transferFrom",
      "outputs": [
        {
          "internalType": "bool",
          "name": "",
          "type": "bool"
        }
      ],
      "stateMutability": "nonpayable",
      "type": "function"
    },
    {
      "inputs": [
        {
          "internalType": "uint256",
          "name": "amount0Desired",
          "type": "uint256"
        },
        {
          "internalType": "uint256",
          "name": "amount1Desired",
          "type": "uint256"
        },
        {
          "internalType": "uint256",
          "name": "amount0Min",
          "type": "uint256"
        },
        {
          "internalType": "uint256",
          "name": "amount1Min",
          "type": "uint256"
        },
        {
          "internalType": "address",
          "name": "to",
          "type": "address"
        }
      ],
      "name": "deposit",
      "outputs": [
        {
          "internalType": "uint256",
          "name": "shares",
          "type": "uint256"
        },
        {
          "internalType": "uint256",
          "name": "amount0",
          "type": "uint256"
        },
        {
          "internalType": "uint256",
          "name": "amount1",
          "type": "uint256"
        }
      ],
      "stateMutability": "nonpayable",
      "type": "function"
    },
    {
      "inputs": [
        {
          "internalType": "uint256",
          "name": "shares",
          "type": "uint256"
        },
        {
          "internalType": "uint256",
          "name": "amount0Min",
          "type": "uint256"
        },
        {
          "internalType": "uint256",
          "name": "amount1Min",
          "type": "uint256"
        },
        {
          "internalType": "address",
          "name": "to",
          "type": "address"
        }
      ],
      "name": "withdraw",
      "outputs": [
        {
          "internalType": "uint256",
          "name": "amount0",
          "type": "uint256"
        },
        {
          "internalType": "uint256",
          "name": "amount1",
          "type": "uint256"
        }
      ],
      "stateMutability": "nonpayable",
      "type": "function"
    },
    {
      "inputs": [
        {
          "internalType": "int256",
          "name": "swapAmount",
          "type": "int256"
        },
        {
          "internalType": "uint160",
          "name": "sqrtPriceLimitX96",
          "type": "uint160"
        },
        {
          "internalType": "int24",
          "name": "_baseLower",
          "type": "int24"
        },
        {
          "internalType": "int24",
          "name": "_baseUpper",
          "type": "int24"
        },
        {
          "internalType": "int24",
          "name": "_bidLower",
          "type": "int24"
        },
        {
          "internalType": "int24",
          "name": "_bidUpper",
          "type": "int24"
        },
        {
          "internalType": "int24",
          "name": "_askLower",
          "type": "int24"
        },
        {
          "internalType": "int24",
          "name": "_askUpper",
          "type": "int24"
        }
      ],
      "name": "rebalance",
      "outputs": [],
      "stateMutability": "nonpayable",
      "type": "function"
    },
    {
      "inputs": [],
      "name": "getTotalAmounts",
      "outputs": [
        {
          "internalType": "uint256",
          "name": "total0",
          "type": "uint256"
        },
        {
          "internalType": "uint256",
          "name": "total1",
          "type": "uint256"
        }
      ],
      "stateMutability": "view",
      "type": "function"
    },
    {
      "inputs": [
        {
          "internalType": "int24",
          "name": "tickLower",
          "type": "int24"
        },
        {
          "internalType": "int24",
          "name": "tickUpper",
          "type": "int24"
        }
      ],
      "name": "getPositionAmounts",
      "outputs": [
        {
          "internalType": "uint256",
          "name": "amount0",
          "type": "uint256"
        },
        {
          "internalType": "uint256",
          "name": "amount1",
          "type": "uint256"
        }
      ],
      "stateMutability": "view",
      "type": "function"
    },
    {
      "inputs": [],
      "name": "getBalance0",
      "outputs": [
        {
          "internalType": "uint256",
          "name": "",
          "type": "uint256"
        }
      ],
      "stateMutability": "view",
      "type": "function"
    },
    {
      "inputs": [],
      "name": "getBalance1",
      "outputs": [
        {
          "internalType": "uint256",
          "name": "",
          "type": "uint256"
        }
      ],
      "stateMutability": "view",
      "type": "function"
    },
    {
      "inputs": [
        {
          "internalType": "uint256",
          "name": "amount0",
          "type": "uint256"
        },
        {
          "internalType": "uint256",
          "name": "amount1",
          "type": "uint256"
        },
        {
          "internalType": "bytes",
          "name": "data",
          "type": "bytes"
        }
      ],
      "name": "uniswapV3MintCallback",
      "outputs": [],
      "stateMutability": "nonpayable",
      "type": "function"
    },
    {
      "inputs": [
        {
          "internalType": "int256",
          "name": "amount0Delta",
          "type": "int256"
        },
        {
          "internalType": "int256",
          "name": "amount1Delta",
          "type": "int256"
        },
        {
          "internalType": "bytes",
          "name": "data",
          "type": "bytes"
        }
      ],
      "name": "uniswapV3SwapCallback",
      "outputs": [],
      "stateMutability": "nonpayable",
      "type": "function"
    },
    {
      "inputs": [
        {
          "internalType": "uint256",
          "name": "amount0",
          "type": "uint256"
        },
        {
          "internalType": "uint256",
          "name": "amount1",
          "type": "uint256"
        },
        {
          "internalType": "address",
          "name": "to",
          "type": "address"
        }
      ],
      "name": "collectProtocol",
      "outputs": [],
      "stateMutability": "nonpayable",
      "type": "function"
    },
    {
      "inputs": [
        {
          "internalType": "contract IERC20",
          "name": "token",
          "type": "address"
        },
        {
          "internalType": "uint256",
          "name": "amount",
          "type": "uint256"
        },
        {
          "internalType": "address",
          "name": "to",
          "type": "address"
        }
      ],
      "name": "sweep",
      "outputs": [],
      "stateMutability": "nonpayable",
      "type": "function"
    },
    {
      "inputs": [
        {
          "internalType": "address",
          "name": "_manager",
          "type": "address"
        }
      ],
      "name": "setManager",
      "outputs": [],
      "stateMutability": "nonpayable",
      "type": "function"
    },
    {
      "inputs": [
        {
          "internalType": "uint256",
          "name": "_protocolFee",
          "type": "uint256"
        }
      ],
      "name": "setProtocolFee",
      "outputs": [],
      "stateMutability": "nonpayable",
      "type": "function"
    },
    {
      "inputs": [
        {
          "internalType": "uint256",
          "name": "_maxTotalSupply",
          "type": "uint256"
        }
      ],
      "name": "setMaxTotalSupply",
      "outputs": [],
      "stateMutability": "nonpayable",
      "type": "function"
    },
    {
      "inputs": [
        {
          "internalType": "int24",
          "name": "tickLower",
          "type": "int24"
        },
        {
          "internalType": "int24",
          "name": "tickUpper",
          "type": "int24"
        },
        {
          "internalType": "uint128",
          "name": "liquidity",
          "type": "uint128"
        }
      ],
      "name": "emergencyBurn",
      "outputs": [],
      "stateMutability": "nonpayable",
      "type": "function"
    },
    {
      "inputs": [
        {
          "internalType": "address",
          "name": "_governance",
          "type": "address"
        }
      ],
      "name": "setGovernance",
      "outputs": [],
      "stateMutability": "nonpayable",
      "type": "function"
    },
    {
      "inputs": [],
      "name": "acceptGovernance",
      "outputs": [],
      "stateMutability": "nonpayable",
      "type": "function"
    }
  ],
  "bytecode": "0x6101006040523480156200001257600080fd5b506040516200691c3803806200691c833981810160405260808110156200003857600080fd5b81019080805190602001909291908051906020019092919080519060200190929190805190602001909291905050506040518060400160405280600f81526020017f556e69737761705633205661756c7400000000000000000000000000000000008152506040518060400160405280600281526020017f55560000000000000000000000000000000000000000000000000000000000008152508160039080519060200190620000eb9291906200043c565b508060049080519060200190620001049291906200043c565b506012600560006101000a81548160ff021916908360ff160217905550505060016006819055508373ffffffffffffffffffffffffffffffffffffffff1660808173ffffffffffffffffffffffffffffffffffffffff1660601b815250508373ffffffffffffffffffffffffffffffffffffffff16630dfe16816040518163ffffffff1660e01b815260040160206040518083038186803b158015620001a957600080fd5b505afa158015620001be573d6000803e3d6000fd5b505050506040513d6020811015620001d557600080fd5b810190808051906020019092919050505073ffffffffffffffffffffffffffffffffffffffff1660a08173ffffffffffffffffffffffffffffffffffffffff1660601b815250508373ffffffffffffffffffffffffffffffffffffffff1663d21220a76040518163ffffffff1660e01b815260040160206040518083038186803b1580156200026357600080fd5b505afa15801562000278573d6000803e3d6000fd5b505050506040513d60208110156200028f57600080fd5b810190808051906020019092919050505073ffffffffffffffffffffffffffffffffffffffff1660c08173ffffffffffffffffffffffffffffffffffffffff1660601b815250508373ffffffffffffffffffffffffffffffffffffffff1663d0c93a7c6040518163ffffffff1660e01b815260040160206040518083038186803b1580156200031d57600080fd5b505afa15801562000332573d6000803e3d6000fd5b505050506040513d60208110156200034957600080fd5b810190808051906020019092919050505060020b60e08160020b60e81b81525050826007819055508160088190555080600a60006101000a81548173ffffffffffffffffffffffffffffffffffffffff021916908373ffffffffffffffffffffffffffffffffffffffff160217905550620f4240831062000432576040517f08c379a000000000000000000000000000000000000000000000000000000000815260040180806020018281038252600b8152602001807f70726f746f636f6c46656500000000000000000000000000000000000000000081525060200191505060405180910390fd5b50505050620004f2565b828054600181600116156101000203166002900490600052602060002090601f016020900481019282620004745760008555620004c0565b82601f106200048f57805160ff1916838001178555620004c0565b82800160010185558215620004c0579182015b82811115620004bf578251825591602001919060010190620004a2565b5b509050620004cf9190620004d3565b5090565b5b80821115620004ee576000816000905550600101620004d4565b5090565b60805160601c60a05160601c60c05160601c60e05160e81c61635c620005c060003980612c4c5280614484525080610fd452806117515280611a325280612d7752806131e5528061337452806134db528061374f525080610f7f52806110e052806116fa5280611b6e5280613190528061331f528061348452806136fa5250806111175280611f34528061224552806129725280612a5352806132b952806136945280613e6852806147885280614892528061497d5280614c1e5280614d465280614e61525061635c6000f3fe608060405234801561001057600080fd5b50600436106102695760003560e01c806387e5e08311610151578063d0c93a7c116100c3578063dc2c256f11610087578063dc2c256f14610c90578063dd62ed3e14610cfe578063eae989a214610d76578063f39c38a014610d94578063fa08274314610dc8578063fa461e3314610de957610269565b8063d0c93a7c14610aed578063d0ebdbe714610b0e578063d21220a714610b52578063d331bef714610b86578063d348799714610c0357610269565b8063a9059cbb11610115578063a9059cbb1461094f578063a91ef6eb146109b3578063ab033ea914610a0c578063abbffcb914610a50578063b0e21e8a14610aaa578063c4a7761e14610ac857610269565b806387e5e0831461078c578063888a91341461082957806395d89b411461084a578063a00fa77f146108cd578063a457c2d7146108eb57610269565b8063313ce567116101ea578063481c6a75116101ae578063481c6a751461065f57806351e87af7146106935780635aa6e675146106b4578063629d9405146106e857806370a0823114610706578063787dce3d1461075e57610269565b8063313ce56714610500578063365d0ed71461052157806339509351146105af5780633f3e4c111461061357806341aec5381461064157610269565b806316f0115b1161023157806316f0115b1461040257806318160ddd14610436578063238efcbc1461045457806323b872dd1461045e5780632ab4d052146104e257610269565b80630430c1301461026e57806306fdde03146102c6578063095ea7b3146103495780630dfe1681146103ad5780630f35bcac146103e1575b600080fd5b6102c46004803603606081101561028457600080fd5b810190808035906020019092919080359060200190929190803573ffffffffffffffffffffffffffffffffffffffff169060200190929190505050610e76565b005b6102ce61101e565b6040518080602001828103825283818151815260200191508051906020019080838360005b8381101561030e5780820151818401526020810190506102f3565b50505050905090810190601f16801561033b5780820380516001836020036101000a031916815260200191505b509250505060405180910390f35b6103956004803603604081101561035f57600080fd5b81019080803573ffffffffffffffffffffffffffffffffffffffff169060200190929190803590602001909291905050506110c0565b60405180821515815260200191505060405180910390f35b6103b56110de565b604051808273ffffffffffffffffffffffffffffffffffffffff16815260200191505060405180910390f35b6103e9611102565b604051808260020b815260200191505060405180910390f35b61040a611115565b604051808273ffffffffffffffffffffffffffffffffffffffff16815260200191505060405180910390f35b61043e611139565b6040518082815260200191505060405180910390f35b61045c611143565b005b6104ca6004803603606081101561047457600080fd5b81019080803573ffffffffffffffffffffffffffffffffffffffff169060200190929190803573ffffffffffffffffffffffffffffffffffffffff16906020019092919080359060200190929190505050611249565b60405180821515815260200191505060405180910390f35b6104ea611322565b6040518082815260200191505060405180910390f35b610508611328565b604051808260ff16815260200191505060405180910390f35b61058b600480360360a081101561053757600080fd5b8101908080359060200190929190803590602001909291908035906020019092919080359060200190929190803573ffffffffffffffffffffffffffffffffffffffff16906020019092919050505061133f565b60405180848152602001838152602001828152602001935050505060405180910390f35b6105fb600480360360408110156105c557600080fd5b81019080803573ffffffffffffffffffffffffffffffffffffffff169060200190929190803590602001909291905050506118a8565b60405180821515815260200191505060405180910390f35b61063f6004803603602081101561062957600080fd5b810190808035906020019092919050505061195b565b005b610649611a28565b6040518082815260200191505060405180910390f35b610667611b05565b604051808273ffffffffffffffffffffffffffffffffffffffff16815260200191505060405180910390f35b61069b611b2b565b604051808260020b815260200191505060405180910390f35b6106bc611b3e565b604051808273ffffffffffffffffffffffffffffffffffffffff16815260200191505060405180910390f35b6106f0611b64565b6040518082815260200191505060405180910390f35b6107486004803603602081101561071c57600080fd5b81019080803573ffffffffffffffffffffffffffffffffffffffff169060200190929190505050611c41565b6040518082815260200191505060405180910390f35b61078a6004803603602081101561077457600080fd5b8101908080359060200190929190505050611c89565b005b61082760048036036101008110156107a357600080fd5b8101908080359060200190929190803573ffffffffffffffffffffffffffffffffffffffff169060200190929190803560020b9060200190929190803560020b9060200190929190803560020b9060200190929190803560020b9060200190929190803560020b9060200190929190803560020b9060200190929190505050611dce565b005b610831612510565b604051808260020b815260200191505060405180910390f35b610852612523565b6040518080602001828103825283818151815260200191508051906020019080838360005b83811015610892578082015181840152602081019050610877565b50505050905090810190601f1680156108bf5780820380516001836020036101000a031916815260200191505b509250505060405180910390f35b6108d56125c5565b6040518082815260200191505060405180910390f35b6109376004803603604081101561090157600080fd5b81019080803573ffffffffffffffffffffffffffffffffffffffff169060200190929190803590602001909291905050506125cb565b60405180821515815260200191505060405180910390f35b61099b6004803603604081101561096557600080fd5b81019080803573ffffffffffffffffffffffffffffffffffffffff16906020019092919080359060200190929190505050612698565b60405180821515815260200191505060405180910390f35b6109ef600480360360408110156109c957600080fd5b81019080803560020b9060200190929190803560020b90602001909291905050506126b6565b604051808381526020018281526020019250505060405180910390f35b610a4e60048036036020811015610a2257600080fd5b81019080803573ffffffffffffffffffffffffffffffffffffffff1690602001909291905050506127a6565b005b610aa860048036036060811015610a6657600080fd5b81019080803560020b9060200190929190803560020b906020019092919080356fffffffffffffffffffffffffffffffff1690602001909291905050506128ad565b005b610ab2612b7f565b6040518082815260200191505060405180910390f35b610ad0612b85565b604051808381526020018281526020019250505060405180910390f35b610af5612c4a565b604051808260020b815260200191505060405180910390f35b610b5060048036036020811015610b2457600080fd5b81019080803573ffffffffffffffffffffffffffffffffffffffff169060200190929190505050612c6e565b005b610b5a612d75565b604051808273ffffffffffffffffffffffffffffffffffffffff16815260200191505060405180910390f35b610be660048036036080811015610b9c57600080fd5b81019080803590602001909291908035906020019092919080359060200190929190803573ffffffffffffffffffffffffffffffffffffffff169060200190929190505050612d99565b604051808381526020018281526020019250505060405180910390f35b610c8e60048036036060811015610c1957600080fd5b81019080803590602001909291908035906020019092919080359060200190640100000000811115610c4a57600080fd5b820183602082011115610c5c57600080fd5b80359060200191846001830284011164010000000083111715610c7e57600080fd5b90919293919293905050506132b7565b005b610cfc60048036036060811015610ca657600080fd5b81019080803573ffffffffffffffffffffffffffffffffffffffff16906020019092919080359060200190929190803573ffffffffffffffffffffffffffffffffffffffff1690602001909291905050506133bf565b005b610d6060048036036040811015610d1457600080fd5b81019080803573ffffffffffffffffffffffffffffffffffffffff169060200190929190803573ffffffffffffffffffffffffffffffffffffffff1690602001909291905050506135cc565b6040518082815260200191505060405180910390f35b610d7e613653565b6040518082815260200191505060405180910390f35b610d9c613659565b604051808273ffffffffffffffffffffffffffffffffffffffff16815260200191505060405180910390f35b610dd061367f565b604051808260020b815260200191505060405180910390f35b610e7460048036036060811015610dff57600080fd5b81019080803590602001909291908035906020019092919080359060200190640100000000811115610e3057600080fd5b820183602082011115610e4257600080fd5b80359060200191846001830284011164010000000083111715610e6457600080fd5b9091929391929390505050613692565b005b600a60009054906101000a900473ffffffffffffffffffffffffffffffffffffffff1673ffffffffffffffffffffffffffffffffffffffff163373ffffffffffffffffffffffffffffffffffffffff1614610f39576040517f08c379a000000000000000000000000000000000000000000000000000000000815260040180806020018281038252600a8152602001807f676f7665726e616e63650000000000000000000000000000000000000000000081525060200191505060405180910390fd5b610f4e83600c5461379a90919063ffffffff16565b600c81905550610f6982600d5461379a90919063ffffffff16565b600d819055506000831115610fc457610fc381847f000000000000000000000000000000000000000000000000000000000000000073ffffffffffffffffffffffffffffffffffffffff1661381d9092919063ffffffff16565b5b60008211156110195761101881837f000000000000000000000000000000000000000000000000000000000000000073ffffffffffffffffffffffffffffffffffffffff1661381d9092919063ffffffff16565b5b505050565b606060038054600181600116156101000203166002900480601f0160208091040260200160405190810160405280929190818152602001828054600181600116156101000203166002900480156110b65780601f1061108b576101008083540402835291602001916110b6565b820191906000526020600020905b81548152906001019060200180831161109957829003601f168201915b5050505050905090565b60006110d46110cd6138bf565b84846138c7565b6001905092915050565b7f000000000000000000000000000000000000000000000000000000000000000081565b600b601d9054906101000a900460020b81565b7f000000000000000000000000000000000000000000000000000000000000000081565b6000600254905090565b600b60009054906101000a900473ffffffffffffffffffffffffffffffffffffffff1673ffffffffffffffffffffffffffffffffffffffff163373ffffffffffffffffffffffffffffffffffffffff1614611206576040517f08c379a00000000000000000000000000000000000000000000000000000000081526004018080602001828103825260118152602001807f70656e64696e67476f7665726e616e636500000000000000000000000000000081525060200191505060405180910390fd5b33600a60006101000a81548173ffffffffffffffffffffffffffffffffffffffff021916908373ffffffffffffffffffffffffffffffffffffffff160217905550565b6000611256848484613abe565b611317846112626138bf565b6113128560405180606001604052806028815260200161624660289139600160008b73ffffffffffffffffffffffffffffffffffffffff1673ffffffffffffffffffffffffffffffffffffffff16815260200190815260200160002060006112c86138bf565b73ffffffffffffffffffffffffffffffffffffffff1673ffffffffffffffffffffffffffffffffffffffff16815260200190815260200160002054613d7f9092919063ffffffff16565b6138c7565b600190509392505050565b60085481565b6000600560009054906101000a900460ff16905090565b6000806000600260065414156113bd576040517f08c379a000000000000000000000000000000000000000000000000000000000815260040180806020018281038252601f8152602001807f5265656e7472616e637947756172643a207265656e7472616e742063616c6c0081525060200191505060405180910390fd5b600260068190555060008811806113d45750600087115b611446576040517f08c379a00000000000000000000000000000000000000000000000000000000081526004018080602001828103825260208152602001807f616d6f756e743044657369726564206f7220616d6f756e74314465736972656481525060200191505060405180910390fd5b600073ffffffffffffffffffffffffffffffffffffffff168473ffffffffffffffffffffffffffffffffffffffff16141580156114af57503073ffffffffffffffffffffffffffffffffffffffff168473ffffffffffffffffffffffffffffffffffffffff1614155b611521576040517f08c379a00000000000000000000000000000000000000000000000000000000081526004018080602001828103825260028152602001807f746f00000000000000000000000000000000000000000000000000000000000081525060200191505060405180910390fd5b611549600b60149054906101000a900460020b600b60179054906101000a900460020b613e39565b611571600b601a9054906101000a900460020b600b601d9054906101000a900460020b613e39565b61157b8888613f3c565b809350819450829550505050600083116115fd576040517f08c379a00000000000000000000000000000000000000000000000000000000081526004018080602001828103825260068152602001807f736861726573000000000000000000000000000000000000000000000000000081525060200191505060405180910390fd5b85821015611673576040517f08c379a000000000000000000000000000000000000000000000000000000000815260040180806020018281038252600a8152602001807f616d6f756e74304d696e0000000000000000000000000000000000000000000081525060200191505060405180910390fd5b848110156116e9576040517f08c379a000000000000000000000000000000000000000000000000000000000815260040180806020018281038252600a8152602001807f616d6f756e74314d696e0000000000000000000000000000000000000000000081525060200191505060405180910390fd5b60008211156117405761173f3330847f000000000000000000000000000000000000000000000000000000000000000073ffffffffffffffffffffffffffffffffffffffff16614170909392919063ffffffff16565b5b6000811115611797576117963330837f000000000000000000000000000000000000000000000000000000000000000073ffffffffffffffffffffffffffffffffffffffff16614170909392919063ffffffff16565b5b6117a18484614231565b8373ffffffffffffffffffffffffffffffffffffffff163373ffffffffffffffffffffffffffffffffffffffff167f4e2ca0515ed1aef1395f66b5303bb5d6f1bf9d61a353fa53f73f8ac9973fa9f685858560405180848152602001838152602001828152602001935050505060405180910390a3600854611821611139565b1115611895576040517f08c379a000000000000000000000000000000000000000000000000000000000815260040180806020018281038252600e8152602001807f6d6178546f74616c537570706c7900000000000000000000000000000000000081525060200191505060405180910390fd5b6001600681905550955095509592505050565b60006119516118b56138bf565b8461194c85600160006118c66138bf565b73ffffffffffffffffffffffffffffffffffffffff1673ffffffffffffffffffffffffffffffffffffffff16815260200190815260200160002060008973ffffffffffffffffffffffffffffffffffffffff1673ffffffffffffffffffffffffffffffffffffffff168152602001908152602001600020546143f890919063ffffffff16565b6138c7565b6001905092915050565b600a60009054906101000a900473ffffffffffffffffffffffffffffffffffffffff1673ffffffffffffffffffffffffffffffffffffffff163373ffffffffffffffffffffffffffffffffffffffff1614611a1e576040517f08c379a000000000000000000000000000000000000000000000000000000000815260040180806020018281038252600a8152602001807f676f7665726e616e63650000000000000000000000000000000000000000000081525060200191505060405180910390fd5b8060088190555050565b6000611b00600d547f000000000000000000000000000000000000000000000000000000000000000073ffffffffffffffffffffffffffffffffffffffff166370a08231306040518263ffffffff1660e01b8152600401808273ffffffffffffffffffffffffffffffffffffffff16815260200191505060206040518083038186803b158015611ab757600080fd5b505afa158015611acb573d6000803e3d6000fd5b505050506040513d6020811015611ae157600080fd5b810190808051906020019092919050505061379a90919063ffffffff16565b905090565b600960009054906101000a900473ffffffffffffffffffffffffffffffffffffffff1681565b600b601a9054906101000a900460020b81565b600a60009054906101000a900473ffffffffffffffffffffffffffffffffffffffff1681565b6000611c3c600c547f000000000000000000000000000000000000000000000000000000000000000073ffffffffffffffffffffffffffffffffffffffff166370a08231306040518263ffffffff1660e01b8152600401808273ffffffffffffffffffffffffffffffffffffffff16815260200191505060206040518083038186803b158015611bf357600080fd5b505afa158015611c07573d6000803e3d6000fd5b505050506040513d6020811015611c1d57600080fd5b810190808051906020019092919050505061379a90919063ffffffff16565b905090565b60008060008373ffffffffffffffffffffffffffffffffffffffff1673ffffffffffffffffffffffffffffffffffffffff168152602001908152602001600020549050919050565b600a60009054906101000a900473ffffffffffffffffffffffffffffffffffffffff1673ffffffffffffffffffffffffffffffffffffffff163373ffffffffffffffffffffffffffffffffffffffff1614611d4c576040517f08c379a000000000000000000000000000000000000000000000000000000000815260040180806020018281038252600a8152602001807f676f7665726e616e63650000000000000000000000000000000000000000000081525060200191505060405180910390fd5b620f42408110611dc4576040517f08c379a000000000000000000000000000000000000000000000000000000000815260040180806020018281038252600b8152602001807f70726f746f636f6c46656500000000000000000000000000000000000000000081525060200191505060405180910390fd5b8060078190555050565b60026006541415611e47576040517f08c379a000000000000000000000000000000000000000000000000000000000815260040180806020018281038252601f8152602001807f5265656e7472616e637947756172643a207265656e7472616e742063616c6c0081525060200191505060405180910390fd5b6002600681905550600960009054906101000a900473ffffffffffffffffffffffffffffffffffffffff1673ffffffffffffffffffffffffffffffffffffffff163373ffffffffffffffffffffffffffffffffffffffff1614611f12576040517f08c379a00000000000000000000000000000000000000000000000000000000081526004018080602001828103825260078152602001807f6d616e616765720000000000000000000000000000000000000000000000000081525060200191505060405180910390fd5b611f1c8686614480565b611f268484614480565b611f308282614480565b60007f000000000000000000000000000000000000000000000000000000000000000073ffffffffffffffffffffffffffffffffffffffff16633850c7bd6040518163ffffffff1660e01b815260040160e06040518083038186803b158015611f9857600080fd5b505afa158015611fac573d6000803e3d6000fd5b505050506040513d60e0811015611fc257600080fd5b810190808051906020019092919080519060200190929190805190602001909291908051906020019092919080519060200190929190805190602001909291908051906020019092919050505050505050509150508060020b8460020b1315612093576040517f08c379a00000000000000000000000000000000000000000000000000000000081526004018080602001828103825260088152602001807f626964557070657200000000000000000000000000000000000000000000000081525060200191505060405180910390fd5b8060020b8360020b1361210e576040517f08c379a00000000000000000000000000000000000000000000000000000000081526004018080602001828103825260088152602001807f61736b4c6f77657200000000000000000000000000000000000000000000000081525060200191505060405180910390fd5b6000612138600b60149054906101000a900460020b600b60179054906101000a900460020b614770565b5050505090506000612168600b601a9054906101000a900460020b600b601d9054906101000a900460020b614770565b505050509050612197600b60149054906101000a900460020b600b60179054906101000a900460020b8461486f565b505050506121c4600b601a9054906101000a900460020b600b601d9054906101000a900460020b8361486f565b50505050505060006121d4611b64565b905060006121e0611a28565b90507f210f60adf1db7a02e9db9a49ec7c2eb2060c516cbcfd01a0c05288144738ee5d83838361220e611139565b604051808560020b815260200184815260200183815260200182815260200194505050505060405180910390a160008b1461237d577f000000000000000000000000000000000000000000000000000000000000000073ffffffffffffffffffffffffffffffffffffffff1663128acb083060008e1360008f13612295578e600003612297565b8e5b8e6040518563ffffffff1660e01b8152600401808573ffffffffffffffffffffffffffffffffffffffff16815260200184151581526020018381526020018273ffffffffffffffffffffffffffffffffffffffff16815260200180602001828103825260008152602001955050505050506040805180830381600087803b15801561232157600080fd5b505af1158015612335573d6000803e3d6000fd5b505050506040513d604081101561234b57600080fd5b8101908080519060200190929190805190602001909291905050505050612370611b64565b915061237a611a28565b90505b600061238b8a8a8585614c19565b90506123988a8a83614d29565b8989600b6014600b60178491906101000a81548162ffffff021916908360020b62ffffff1602179055508391906101000a81548162ffffff021916908360020b62ffffff16021790555050506123ec611b64565b92506123f6611a28565b9150600061240689898686614c19565b9050600061241688888787614c19565b9050806fffffffffffffffffffffffffffffffff16826fffffffffffffffffffffffffffffffff1611156124a05761244f8a8a84614d29565b8989600b601a600b601d8491906101000a81548162ffffff021916908360020b62ffffff1602179055508391906101000a81548162ffffff021916908360020b62ffffff16021790555050506124f8565b6124ab888883614d29565b8787600b601a600b601d8491906101000a81548162ffffff021916908360020b62ffffff1602179055508391906101000a81548162ffffff021916908360020b62ffffff16021790555050505b50505050505060016006819055505050505050505050565b600b60179054906101000a900460020b81565b606060048054600181600116156101000203166002900480601f0160208091040260200160405190810160405280929190818152602001828054600181600116156101000203166002900480156125bb5780601f10612590576101008083540402835291602001916125bb565b820191906000526020600020905b81548152906001019060200180831161259e57829003601f168201915b5050505050905090565b600d5481565b600061268e6125d86138bf565b846126898560405180606001604052806025815260200161630260259139600160006126026138bf565b73ffffffffffffffffffffffffffffffffffffffff1673ffffffffffffffffffffffffffffffffffffffff16815260200190815260200160002060008a73ffffffffffffffffffffffffffffffffffffffff1673ffffffffffffffffffffffffffffffffffffffff16815260200190815260200160002054613d7f9092919063ffffffff16565b6138c7565b6001905092915050565b60006126ac6126a56138bf565b8484613abe565b6001905092915050565b60008060008060006126c88787614770565b94509450505092506126db878785614e5a565b809550819650505060006126fd600754620f424061379a90919063ffffffff16565b905061274b61273c620f424061272e84876fffffffffffffffffffffffffffffffff16614f6d90919063ffffffff16565b614ff390919063ffffffff16565b876143f890919063ffffffff16565b955061279961278a620f424061277c84866fffffffffffffffffffffffffffffffff16614f6d90919063ffffffff16565b614ff390919063ffffffff16565b866143f890919063ffffffff16565b9450505050509250929050565b600a60009054906101000a900473ffffffffffffffffffffffffffffffffffffffff1673ffffffffffffffffffffffffffffffffffffffff163373ffffffffffffffffffffffffffffffffffffffff1614612869576040517f08c379a000000000000000000000000000000000000000000000000000000000815260040180806020018281038252600a8152602001807f676f7665726e616e63650000000000000000000000000000000000000000000081525060200191505060405180910390fd5b80600b60006101000a81548173ffffffffffffffffffffffffffffffffffffffff021916908373ffffffffffffffffffffffffffffffffffffffff16021790555050565b600a60009054906101000a900473ffffffffffffffffffffffffffffffffffffffff1673ffffffffffffffffffffffffffffffffffffffff163373ffffffffffffffffffffffffffffffffffffffff1614612970576040517f08c379a000000000000000000000000000000000000000000000000000000000815260040180806020018281038252600a8152602001807f676f7665726e616e63650000000000000000000000000000000000000000000081525060200191505060405180910390fd5b7f000000000000000000000000000000000000000000000000000000000000000073ffffffffffffffffffffffffffffffffffffffff1663a34123a78484846040518463ffffffff1660e01b8152600401808460020b81526020018360020b8152602001826fffffffffffffffffffffffffffffffff16815260200193505050506040805180830381600087803b158015612a0a57600080fd5b505af1158015612a1e573d6000803e3d6000fd5b505050506040513d6040811015612a3457600080fd5b81019080805190602001909291908051906020019092919050505050507f000000000000000000000000000000000000000000000000000000000000000073ffffffffffffffffffffffffffffffffffffffff16634f1eb3d83085856fffffffffffffffffffffffffffffffff806040518663ffffffff1660e01b8152600401808673ffffffffffffffffffffffffffffffffffffffff1681526020018560020b81526020018460020b8152602001836fffffffffffffffffffffffffffffffff168152602001826fffffffffffffffffffffffffffffffff168152602001955050505050506040805180830381600087803b158015612b3357600080fd5b505af1158015612b47573d6000803e3d6000fd5b505050506040513d6040811015612b5d57600080fd5b8101908080519060200190929190805190602001909291905050505050505050565b60075481565b600080600080612bb3600b60149054906101000a900460020b600b60179054906101000a900460020b6126b6565b91509150600080612be2600b601a9054906101000a900460020b600b601d9054906101000a900460020b6126b6565b91509150612c1282612c0486612bf6611b64565b6143f890919063ffffffff16565b6143f890919063ffffffff16565b9550612c4081612c3285612c24611a28565b6143f890919063ffffffff16565b6143f890919063ffffffff16565b9450505050509091565b7f000000000000000000000000000000000000000000000000000000000000000081565b600a60009054906101000a900473ffffffffffffffffffffffffffffffffffffffff1673ffffffffffffffffffffffffffffffffffffffff163373ffffffffffffffffffffffffffffffffffffffff1614612d31576040517f08c379a000000000000000000000000000000000000000000000000000000000815260040180806020018281038252600a8152602001807f676f7665726e616e63650000000000000000000000000000000000000000000081525060200191505060405180910390fd5b80600960006101000a81548173ffffffffffffffffffffffffffffffffffffffff021916908373ffffffffffffffffffffffffffffffffffffffff16021790555050565b7f000000000000000000000000000000000000000000000000000000000000000081565b60008060026006541415612e15576040517f08c379a000000000000000000000000000000000000000000000000000000000815260040180806020018281038252601f8152602001807f5265656e7472616e637947756172643a207265656e7472616e742063616c6c0081525060200191505060405180910390fd5b600260068190555060008611612e93576040517f08c379a00000000000000000000000000000000000000000000000000000000081526004018080602001828103825260068152602001807f736861726573000000000000000000000000000000000000000000000000000081525060200191505060405180910390fd5b600073ffffffffffffffffffffffffffffffffffffffff168373ffffffffffffffffffffffffffffffffffffffff1614158015612efc57503073ffffffffffffffffffffffffffffffffffffffff168373ffffffffffffffffffffffffffffffffffffffff1614155b612f6e576040517f08c379a00000000000000000000000000000000000000000000000000000000081526004018080602001828103825260028152602001807f746f00000000000000000000000000000000000000000000000000000000000081525060200191505060405180910390fd5b6000612f78611139565b9050612f84338861507c565b6000612fb282612fa48a612f96611b64565b614f6d90919063ffffffff16565b614ff390919063ffffffff16565b90506000612fe283612fd48b612fc6611a28565b614f6d90919063ffffffff16565b614ff390919063ffffffff16565b9050600080613011600b60149054906101000a900460020b600b60179054906101000a900460020b8d88615240565b91509150600080613042600b601a9054906101000a900460020b600b601d9054906101000a900460020b8f8a615240565b9150915061306b8261305d86896143f890919063ffffffff16565b6143f890919063ffffffff16565b98506130928161308485886143f890919063ffffffff16565b6143f890919063ffffffff16565b97508b89101561310a576040517f08c379a000000000000000000000000000000000000000000000000000000000815260040180806020018281038252600a8152602001807f616d6f756e74304d696e0000000000000000000000000000000000000000000081525060200191505060405180910390fd5b8a881015613180576040517f08c379a000000000000000000000000000000000000000000000000000000000815260040180806020018281038252600a8152602001807f616d6f756e74314d696e0000000000000000000000000000000000000000000081525060200191505060405180910390fd5b60008911156131d5576131d48a8a7f000000000000000000000000000000000000000000000000000000000000000073ffffffffffffffffffffffffffffffffffffffff1661381d9092919063ffffffff16565b5b600088111561322a576132298a897f000000000000000000000000000000000000000000000000000000000000000073ffffffffffffffffffffffffffffffffffffffff1661381d9092919063ffffffff16565b5b8973ffffffffffffffffffffffffffffffffffffffff163373ffffffffffffffffffffffffffffffffffffffff167febff2602b3f468259e1e99f613fed6691f3a6526effe6ef3e768ba7ae7a36c4f8f8c8c60405180848152602001838152602001828152602001935050505060405180910390a350505050505050600160068190555094509492505050565b7f000000000000000000000000000000000000000000000000000000000000000073ffffffffffffffffffffffffffffffffffffffff163373ffffffffffffffffffffffffffffffffffffffff161461330f57600080fd5b60008411156133645761336333857f000000000000000000000000000000000000000000000000000000000000000073ffffffffffffffffffffffffffffffffffffffff1661381d9092919063ffffffff16565b5b60008311156133b9576133b833847f000000000000000000000000000000000000000000000000000000000000000073ffffffffffffffffffffffffffffffffffffffff1661381d9092919063ffffffff16565b5b50505050565b600a60009054906101000a900473ffffffffffffffffffffffffffffffffffffffff1673ffffffffffffffffffffffffffffffffffffffff163373ffffffffffffffffffffffffffffffffffffffff1614613482576040517f08c379a000000000000000000000000000000000000000000000000000000000815260040180806020018281038252600a8152602001807f676f7665726e616e63650000000000000000000000000000000000000000000081525060200191505060405180910390fd5b7f000000000000000000000000000000000000000000000000000000000000000073ffffffffffffffffffffffffffffffffffffffff168373ffffffffffffffffffffffffffffffffffffffff161415801561352a57507f000000000000000000000000000000000000000000000000000000000000000073ffffffffffffffffffffffffffffffffffffffff168373ffffffffffffffffffffffffffffffffffffffff1614155b61359c576040517f08c379a00000000000000000000000000000000000000000000000000000000081526004018080602001828103825260058152602001807f746f6b656e00000000000000000000000000000000000000000000000000000081525060200191505060405180910390fd5b6135c781838573ffffffffffffffffffffffffffffffffffffffff1661381d9092919063ffffffff16565b505050565b6000600160008473ffffffffffffffffffffffffffffffffffffffff1673ffffffffffffffffffffffffffffffffffffffff16815260200190815260200160002060008373ffffffffffffffffffffffffffffffffffffffff1673ffffffffffffffffffffffffffffffffffffffff16815260200190815260200160002054905092915050565b600c5481565b600b60009054906101000a900473ffffffffffffffffffffffffffffffffffffffff1681565b600b60149054906101000a900460020b81565b7f000000000000000000000000000000000000000000000000000000000000000073ffffffffffffffffffffffffffffffffffffffff163373ffffffffffffffffffffffffffffffffffffffff16146136ea57600080fd5b600084131561373f5761373e33857f000000000000000000000000000000000000000000000000000000000000000073ffffffffffffffffffffffffffffffffffffffff1661381d9092919063ffffffff16565b5b60008313156137945761379333847f000000000000000000000000000000000000000000000000000000000000000073ffffffffffffffffffffffffffffffffffffffff1661381d9092919063ffffffff16565b5b50505050565b600082821115613812576040517f08c379a000000000000000000000000000000000000000000000000000000000815260040180806020018281038252601e8152602001807f536166654d6174683a207375627472616374696f6e206f766572666c6f77000081525060200191505060405180910390fd5b818303905092915050565b6138ba8363a9059cbb60e01b8484604051602401808373ffffffffffffffffffffffffffffffffffffffff16815260200182815260200192505050604051602081830303815290604052907bffffffffffffffffffffffffffffffffffffffffffffffffffffffff19166020820180517bffffffffffffffffffffffffffffffffffffffffffffffffffffffff838183161783525050505061533c565b505050565b600033905090565b600073ffffffffffffffffffffffffffffffffffffffff168373ffffffffffffffffffffffffffffffffffffffff16141561394d576040517f08c379a00000000000000000000000000000000000000000000000000000000081526004018080602001828103825260248152602001806162b46024913960400191505060405180910390fd5b600073ffffffffffffffffffffffffffffffffffffffff168273ffffffffffffffffffffffffffffffffffffffff1614156139d3576040517f08c379a00000000000000000000000000000000000000000000000000000000081526004018080602001828103825260228152602001806161b76022913960400191505060405180910390fd5b80600160008573ffffffffffffffffffffffffffffffffffffffff1673ffffffffffffffffffffffffffffffffffffffff16815260200190815260200160002060008473ffffffffffffffffffffffffffffffffffffffff1673ffffffffffffffffffffffffffffffffffffffff168152602001908152602001600020819055508173ffffffffffffffffffffffffffffffffffffffff168373ffffffffffffffffffffffffffffffffffffffff167f8c5be1e5ebec7d5bd14f71427d1e84f3dd0314c0f7b2291e5b200ac8c7c3b925836040518082815260200191505060405180910390a3505050565b600073ffffffffffffffffffffffffffffffffffffffff168373ffffffffffffffffffffffffffffffffffffffff161415613b44576040517f08c379a000000000000000000000000000000000000000000000000000000000815260040180806020018281038252602581526020018061628f6025913960400191505060405180910390fd5b600073ffffffffffffffffffffffffffffffffffffffff168273ffffffffffffffffffffffffffffffffffffffff161415613bca576040517f08c379a00000000000000000000000000000000000000000000000000000000081526004018080602001828103825260238152602001806161726023913960400191505060405180910390fd5b613bd583838361542b565b613c40816040518060600160405280602681526020016161d9602691396000808773ffffffffffffffffffffffffffffffffffffffff1673ffffffffffffffffffffffffffffffffffffffff16815260200190815260200160002054613d7f9092919063ffffffff16565b6000808573ffffffffffffffffffffffffffffffffffffffff1673ffffffffffffffffffffffffffffffffffffffff16815260200190815260200160002081905550613cd3816000808573ffffffffffffffffffffffffffffffffffffffff1673ffffffffffffffffffffffffffffffffffffffff168152602001908152602001600020546143f890919063ffffffff16565b6000808473ffffffffffffffffffffffffffffffffffffffff1673ffffffffffffffffffffffffffffffffffffffff168152602001908152602001600020819055508173ffffffffffffffffffffffffffffffffffffffff168373ffffffffffffffffffffffffffffffffffffffff167fddf252ad1be2c89b69c2b068fc378daa952ba7f163c4a11628f55a4df523b3ef836040518082815260200191505060405180910390a3505050565b6000838311158290613e2c576040517f08c379a00000000000000000000000000000000000000000000000000000000081526004018080602001828103825283818151815260200191508051906020019080838360005b83811015613df1578082015181840152602081019050613dd6565b50505050905090810190601f168015613e1e5780820380516001836020036101000a031916815260200191505b509250505060405180910390fd5b5082840390509392505050565b6000613e458383614770565b5050505090506000816fffffffffffffffffffffffffffffffff161115613f37577f000000000000000000000000000000000000000000000000000000000000000073ffffffffffffffffffffffffffffffffffffffff1663a34123a7848460006040518463ffffffff1660e01b8152600401808460020b81526020018360020b815260200182815260200193505050506040805180830381600087803b158015613eef57600080fd5b505af1158015613f03573d6000803e3d6000fd5b505050506040513d6040811015613f1957600080fd5b81019080805190602001909291908051906020019092919050505050505b505050565b600080600080613f4a611139565b9050600080613f57612b85565b915091506000831480613f6a5750600082115b80613f755750600081115b613f7b57fe5b6000831415613f9b57879450869350613f948585615430565b9550614166565b6000821415613fd357869350613fcc81613fbe8587614f6d90919063ffffffff16565b614ff390919063ffffffff16565b9550614165565b600081141561400b5787945061400482613ff68588614f6d90919063ffffffff16565b614ff390919063ffffffff16565b9550614164565b600061403b614023838b614f6d90919063ffffffff16565b614036858b614f6d90919063ffffffff16565b61544a565b9050600081116140b3576040517f08c379a00000000000000000000000000000000000000000000000000000000081526004018080602001828103825260058152602001807f63726f737300000000000000000000000000000000000000000000000000000081525060200191505060405180910390fd5b6140ec60016140de846140d060018661379a90919063ffffffff16565b614ff390919063ffffffff16565b6143f890919063ffffffff16565b955061412760016141198561410b60018661379a90919063ffffffff16565b614ff390919063ffffffff16565b6143f890919063ffffffff16565b945061416082614152856141448886614f6d90919063ffffffff16565b614ff390919063ffffffff16565b614ff390919063ffffffff16565b9650505b5b5b5050509250925092565b61422b846323b872dd60e01b858585604051602401808473ffffffffffffffffffffffffffffffffffffffff1681526020018373ffffffffffffffffffffffffffffffffffffffff1681526020018281526020019350505050604051602081830303815290604052907bffffffffffffffffffffffffffffffffffffffffffffffffffffffff19166020820180517bffffffffffffffffffffffffffffffffffffffffffffffffffffffff838183161783525050505061533c565b50505050565b600073ffffffffffffffffffffffffffffffffffffffff168273ffffffffffffffffffffffffffffffffffffffff1614156142d4576040517f08c379a000000000000000000000000000000000000000000000000000000000815260040180806020018281038252601f8152602001807f45524332303a206d696e7420746f20746865207a65726f20616464726573730081525060200191505060405180910390fd5b6142e06000838361542b565b6142f5816002546143f890919063ffffffff16565b60028190555061434c816000808573ffffffffffffffffffffffffffffffffffffffff1673ffffffffffffffffffffffffffffffffffffffff168152602001908152602001600020546143f890919063ffffffff16565b6000808473ffffffffffffffffffffffffffffffffffffffff1673ffffffffffffffffffffffffffffffffffffffff168152602001908152602001600020819055508173ffffffffffffffffffffffffffffffffffffffff16600073ffffffffffffffffffffffffffffffffffffffff167fddf252ad1be2c89b69c2b068fc378daa952ba7f163c4a11628f55a4df523b3ef836040518082815260200191505060405180910390a35050565b600080828401905083811015614476576040517f08c379a000000000000000000000000000000000000000000000000000000000815260040180806020018281038252601b8152602001807f536166654d6174683a206164646974696f6e206f766572666c6f77000000000081525060200191505060405180910390fd5b8091505092915050565b60007f000000000000000000000000000000000000000000000000000000000000000090508160020b8360020b12614520576040517f08c379a00000000000000000000000000000000000000000000000000000000081526004018080602001828103825260158152602001807f7469636b4c6f776572203c207469636b5570706572000000000000000000000081525060200191505060405180910390fd5b7ffffffffffffffffffffffffffffffffffffffffffffffffffffffffffff2761860020b8360020b12156145bc576040517f08c379a00000000000000000000000000000000000000000000000000000000081526004018080602001828103825260118152602001807f7469636b4c6f77657220746f6f206c6f7700000000000000000000000000000081525060200191505060405180910390fd5b7ffffffffffffffffffffffffffffffffffffffffffffffffffffffffffff2761860000360020b8260020b131561465b576040517f08c379a00000000000000000000000000000000000000000000000000000000081526004018080602001828103825260128152602001807f7469636b557070657220746f6f2068696768000000000000000000000000000081525060200191505060405180910390fd5b60008160020b8460020b8161466c57fe5b0760020b146146e3576040517f08c379a00000000000000000000000000000000000000000000000000000000081526004018080602001828103825260178152602001807f7469636b4c6f7765722025207469636b53706163696e6700000000000000000081525060200191505060405180910390fd5b60008160020b8360020b816146f457fe5b0760020b1461476b576040517f08c379a00000000000000000000000000000000000000000000000000000000081526004018080602001828103825260178152602001807f7469636b55707065722025207469636b53706163696e6700000000000000000081525060200191505060405180910390fd5b505050565b600080600080600080614784308989615463565b90507f000000000000000000000000000000000000000000000000000000000000000073ffffffffffffffffffffffffffffffffffffffff1663514ea4bf826040518263ffffffff1660e01b81526004018082815260200191505060a06040518083038186803b1580156147f757600080fd5b505afa15801561480b573d6000803e3d6000fd5b505050506040513d60a081101561482157600080fd5b81019080805190602001909291908051906020019092919080519060200190929190805190602001909291908051906020019092919050505095509550955095509550509295509295909350565b6000806000806000856fffffffffffffffffffffffffffffffff161115614978577f000000000000000000000000000000000000000000000000000000000000000073ffffffffffffffffffffffffffffffffffffffff1663a34123a78888886040518463ffffffff1660e01b8152600401808460020b81526020018360020b8152602001826fffffffffffffffffffffffffffffffff16815260200193505050506040805180830381600087803b15801561492a57600080fd5b505af115801561493e573d6000803e3d6000fd5b505050506040513d604081101561495457600080fd5b81019080805190602001909291908051906020019092919050505080945081955050505b6000807f000000000000000000000000000000000000000000000000000000000000000073ffffffffffffffffffffffffffffffffffffffff16634f1eb3d8308b8b6fffffffffffffffffffffffffffffffff806040518663ffffffff1660e01b8152600401808673ffffffffffffffffffffffffffffffffffffffff1681526020018560020b81526020018460020b8152602001836fffffffffffffffffffffffffffffffff168152602001826fffffffffffffffffffffffffffffffff168152602001955050505050506040805180830381600087803b158015614a5d57600080fd5b505af1158015614a71573d6000803e3d6000fd5b505050506040513d6040811015614a8757600080fd5b8101908080519060200190929190805190602001909291905050506fffffffffffffffffffffffffffffffff1691506fffffffffffffffffffffffffffffffff169150614add868361379a90919063ffffffff16565b9350614af2858261379a90919063ffffffff16565b9250600080600060075490506000811115614bbc57614b2f620f4240614b21838a614f6d90919063ffffffff16565b614ff390919063ffffffff16565b9250614b59620f4240614b4b8389614f6d90919063ffffffff16565b614ff390919063ffffffff16565b9150614b6e838861379a90919063ffffffff16565b9650614b83828761379a90919063ffffffff16565b9550614b9a83600c546143f890919063ffffffff16565b600c81905550614bb582600d546143f890919063ffffffff16565b600d819055505b7f1ac56d7e866e3f5ea9aa92aa11758ead39a0a5f013f3fefb0f47cb9d008edd27878785856040518085815260200184815260200183815260200182815260200194505050505060405180910390a1505050505093509350935093565b6000807f000000000000000000000000000000000000000000000000000000000000000073ffffffffffffffffffffffffffffffffffffffff16633850c7bd6040518163ffffffff1660e01b815260040160e06040518083038186803b158015614c8257600080fd5b505afa158015614c96573d6000803e3d6000fd5b505050506040513d60e0811015614cac57600080fd5b81019080805190602001909291908051906020019092919080519060200190929190805190602001909291908051906020019092919080519060200190929190805190602001909291905050505050505050509050614d1e81614d0e886154ca565b614d17886154ca565b8787615905565b915050949350505050565b6000816fffffffffffffffffffffffffffffffff161115614e55577f000000000000000000000000000000000000000000000000000000000000000073ffffffffffffffffffffffffffffffffffffffff16633c8a7d8d308585856040518563ffffffff1660e01b8152600401808573ffffffffffffffffffffffffffffffffffffffff1681526020018460020b81526020018360020b8152602001826fffffffffffffffffffffffffffffffff16815260200180602001828103825260008152602001955050505050506040805180830381600087803b158015614e0d57600080fd5b505af1158015614e21573d6000803e3d6000fd5b505050506040513d6040811015614e3757600080fd5b81019080805190602001909291908051906020019092919050505050505b505050565b60008060007f000000000000000000000000000000000000000000000000000000000000000073ffffffffffffffffffffffffffffffffffffffff16633850c7bd6040518163ffffffff1660e01b815260040160e06040518083038186803b158015614ec557600080fd5b505afa158015614ed9573d6000803e3d6000fd5b505050506040513d60e0811015614eef57600080fd5b81019080805190602001909291908051906020019092919080519060200190929190805190602001909291908051906020019092919080519060200190929190805190602001909291905050505050505050509050614f6081614f51886154ca565b614f5a886154ca565b87615a31565b9250925050935093915050565b600080831415614f805760009050614fed565b6000828402905082848281614f9157fe5b0414614fe8576040517f08c379a00000000000000000000000000000000000000000000000000000000081526004018080602001828103825260218152602001806162256021913960400191505060405180910390fd5b809150505b92915050565b600080821161506a576040517f08c379a000000000000000000000000000000000000000000000000000000000815260040180806020018281038252601a8152602001807f536166654d6174683a206469766973696f6e206279207a65726f00000000000081525060200191505060405180910390fd5b81838161507357fe5b04905092915050565b600073ffffffffffffffffffffffffffffffffffffffff168273ffffffffffffffffffffffffffffffffffffffff161415615102576040517f08c379a000000000000000000000000000000000000000000000000000000000815260040180806020018281038252602181526020018061626e6021913960400191505060405180910390fd5b61510e8260008361542b565b61517981604051806060016040528060228152602001616195602291396000808673ffffffffffffffffffffffffffffffffffffffff1673ffffffffffffffffffffffffffffffffffffffff16815260200190815260200160002054613d7f9092919063ffffffff16565b6000808473ffffffffffffffffffffffffffffffffffffffff1673ffffffffffffffffffffffffffffffffffffffff168152602001908152602001600020819055506151d08160025461379a90919063ffffffff16565b600281905550600073ffffffffffffffffffffffffffffffffffffffff168273ffffffffffffffffffffffffffffffffffffffff167fddf252ad1be2c89b69c2b068fc378daa952ba7f163c4a11628f55a4df523b3ef836040518082815260200191505060405180910390a35050565b600080600061524f8787614770565b505050509050600061528e8561528088856fffffffffffffffffffffffffffffffff16614f6d90919063ffffffff16565b614ff390919063ffffffff16565b90506000811115615331576000806000806152b28c8c6152ad88615b23565b61486f565b93509350935093506152f16152e28a6152d48d86614f6d90919063ffffffff16565b614ff390919063ffffffff16565b856143f890919063ffffffff16565b975061532a61531b8a61530d8d85614f6d90919063ffffffff16565b614ff390919063ffffffff16565b846143f890919063ffffffff16565b9650505050505b505094509492505050565b600061539e826040518060400160405280602081526020017f5361666545524332303a206c6f772d6c6576656c2063616c6c206661696c65648152508573ffffffffffffffffffffffffffffffffffffffff16615b499092919063ffffffff16565b9050600081511115615426578080602001905160208110156153bf57600080fd5b8101908080519060200190929190505050615425576040517f08c379a000000000000000000000000000000000000000000000000000000000815260040180806020018281038252602a8152602001806162d8602a913960400191505060405180910390fd5b5b505050565b505050565b6000818310156154405781615442565b825b905092915050565b6000818310615459578161545b565b825b905092915050565b6000838383604051602001808473ffffffffffffffffffffffffffffffffffffffff1660601b81526014018360020b60e81b81526003018260020b60e81b815260030193505050506040516020818303038152906040528051906020012090509392505050565b60008060008360020b126154e1578260020b6154e9565b8260020b6000035b90507ffffffffffffffffffffffffffffffffffffffffffffffffffffffffffff2761860000360020b811115615587576040517f08c379a00000000000000000000000000000000000000000000000000000000081526004018080602001828103825260018152602001807f540000000000000000000000000000000000000000000000000000000000000081525060200191505060405180910390fd5b6000806001831614156155ab577001000000000000000000000000000000006155bd565b6ffffcb933bd6fad37aa2d162d1a5940015b70ffffffffffffffffffffffffffffffffff169050600060028316146155f75760806ffff97272373d413259a46990580e213a8202901c90505b6000600483161461561c5760806ffff2e50f5f656932ef12357cf3c7fdcc8202901c90505b600060088316146156415760806fffe5caca7e10e4e61c3624eaa0941cd08202901c90505b600060108316146156665760806fffcb9843d60f6159c9db58835c9266448202901c90505b6000602083161461568b5760806fff973b41fa98c081472e6896dfb254c08202901c90505b600060408316146156b05760806fff2ea16466c96a3843ec78b326b528618202901c90505b600060808316146156d55760806ffe5dee046a99a2a811c461f1969c30538202901c90505b60006101008316146156fb5760806ffcbe86c7900a88aedcffc83b479aa3a48202901c90505b60006102008316146157215760806ff987a7253ac413176f2b074cf7815e548202901c90505b60006104008316146157475760806ff3392b0822b70005940c7a398e4b70f38202901c90505b600061080083161461576d5760806fe7159475a2c29b7443b29c7fa6e889d98202901c90505b60006110008316146157935760806fd097f3bdfd2022b8845ad8f792aa58258202901c90505b60006120008316146157b95760806fa9f746462d870fdf8a65dc1f90e061e58202901c90505b60006140008316146157df5760806f70d869a156d2a1b890bb3df62baf32f78202901c90505b60006180008316146158055760806f31be135f97d08fd981231505542fcfa68202901c90505b60006201000083161461582c5760806f09aa508b5b7a84e1c677de54f3e99bc98202901c90505b6000620200008316146158525760806e5d6af8dedb81196699c329225ee6048202901c90505b6000620400008316146158775760806d2216e584f5fa1ea926041bedfe988202901c90505b60006208000083161461589a5760806b048a170391f7dc42444e8fa28202901c90505b60008460020b13156158d357807fffffffffffffffffffffffffffffffffffffffffffffffffffffffffffffffff816158cf57fe5b0490505b600064010000000082816158e357fe5b06146158f05760016158f3565b60005b60ff16602082901c0192505050919050565b60008373ffffffffffffffffffffffffffffffffffffffff168573ffffffffffffffffffffffffffffffffffffffff16111561594657838580955081965050505b8473ffffffffffffffffffffffffffffffffffffffff168673ffffffffffffffffffffffffffffffffffffffff161161598b57615984858585615b61565b9050615a28565b8373ffffffffffffffffffffffffffffffffffffffff168673ffffffffffffffffffffffffffffffffffffffff161015615a195760006159cc878686615b61565b905060006159db878986615c1f565b9050806fffffffffffffffffffffffffffffffff16826fffffffffffffffffffffffffffffffff1610615a0e5780615a10565b815b92505050615a27565b615a24858584615c1f565b90505b5b95945050505050565b6000808373ffffffffffffffffffffffffffffffffffffffff168573ffffffffffffffffffffffffffffffffffffffff161115615a7357838580955081965050505b8473ffffffffffffffffffffffffffffffffffffffff168673ffffffffffffffffffffffffffffffffffffffff1611615ab857615ab1858585615ca1565b9150615b1a565b8373ffffffffffffffffffffffffffffffffffffffff168673ffffffffffffffffffffffffffffffffffffffff161015615b0b57615af7868585615ca1565b9150615b04858785615d5c565b9050615b19565b615b16858585615d5c565b90505b5b94509492505050565b60006fffffffffffffffffffffffffffffffff8016821115615b4157fe5b819050919050565b6060615b588484600085615de8565b90509392505050565b60008273ffffffffffffffffffffffffffffffffffffffff168473ffffffffffffffffffffffffffffffffffffffff161115615ba257828480945081955050505b6000615be88573ffffffffffffffffffffffffffffffffffffffff168573ffffffffffffffffffffffffffffffffffffffff166c01000000000000000000000000615f90565b9050615c15615c10848388880373ffffffffffffffffffffffffffffffffffffffff16615f90565b61606a565b9150509392505050565b60008273ffffffffffffffffffffffffffffffffffffffff168473ffffffffffffffffffffffffffffffffffffffff161115615c6057828480945081955050505b615c98615c93836c0100000000000000000000000087870373ffffffffffffffffffffffffffffffffffffffff16615f90565b61606a565b90509392505050565b60008273ffffffffffffffffffffffffffffffffffffffff168473ffffffffffffffffffffffffffffffffffffffff161115615ce257828480945081955050505b8373ffffffffffffffffffffffffffffffffffffffff16615d4b606060ff16846fffffffffffffffffffffffffffffffff16901b86860373ffffffffffffffffffffffffffffffffffffffff168673ffffffffffffffffffffffffffffffffffffffff16615f90565b81615d5257fe5b0490509392505050565b60008273ffffffffffffffffffffffffffffffffffffffff168473ffffffffffffffffffffffffffffffffffffffff161115615d9d57828480945081955050505b615ddf826fffffffffffffffffffffffffffffffff1685850373ffffffffffffffffffffffffffffffffffffffff166c01000000000000000000000000615f90565b90509392505050565b606082471015615e43576040517f08c379a00000000000000000000000000000000000000000000000000000000081526004018080602001828103825260268152602001806161ff6026913960400191505060405180910390fd5b615e4c85616092565b615ebe576040517f08c379a000000000000000000000000000000000000000000000000000000000815260040180806020018281038252601d8152602001807f416464726573733a2063616c6c20746f206e6f6e2d636f6e747261637400000081525060200191505060405180910390fd5b6000808673ffffffffffffffffffffffffffffffffffffffff1685876040518082805190602001908083835b60208310615f0d5780518252602082019150602081019050602083039250615eea565b6001836020036101000a03801982511681845116808217855250505050505090500191505060006040518083038185875af1925050503d8060008114615f6f576040519150601f19603f3d011682016040523d82523d6000602084013e615f74565b606091505b5091509150615f848282866160a5565b92505050949350505050565b600080600080198587098587029250828110838203039150506000811415615fcb5760008411615fbf57600080fd5b83820492505050616063565b808411615fd757600080fd5b600084868809905082811182039150808303925060008586600003169050808604955080840493506001818260000304019050808302841793506000600287600302189050808702600203810290508087026002038102905080870260020381029050808702600203810290508087026002038102905080870260020381029050808502955050505050505b9392505050565b600081829150816fffffffffffffffffffffffffffffffff161461608d57600080fd5b919050565b600080823b905060008111915050919050565b606083156160b55782905061616a565b6000835111156160c85782518084602001fd5b816040517f08c379a00000000000000000000000000000000000000000000000000000000081526004018080602001828103825283818151815260200191508051906020019080838360005b8381101561612f578082015181840152602081019050616114565b50505050905090810190601f16801561615c5780820380516001836020036101000a031916815260200191505b509250505060405180910390fd5b939250505056fe45524332303a207472616e7366657220746f20746865207a65726f206164647265737345524332303a206275726e20616d6f756e7420657863656564732062616c616e636545524332303a20617070726f766520746f20746865207a65726f206164647265737345524332303a207472616e7366657220616d6f756e7420657863656564732062616c616e6365416464726573733a20696e73756666696369656e742062616c616e636520666f722063616c6c536166654d6174683a206d756c7469706c69636174696f6e206f766572666c6f7745524332303a207472616e7366657220616d6f756e74206578636565647320616c6c6f77616e636545524332303a206275726e2066726f6d20746865207a65726f206164647265737345524332303a207472616e736665722066726f6d20746865207a65726f206164647265737345524332303a20617070726f76652066726f6d20746865207a65726f20616464726573735361666545524332303a204552433230206f7065726174696f6e20646964206e6f74207375636365656445524332303a2064656372656173656420616c6c6f77616e63652062656c6f77207a65726fa2646970667358221220a039505c23a11ff6d029f55149d98e8eb5d37b3ff7d1791b72734a1f946b976964736f6c63430007060033",
  "immutableReferences": {
    "3615": [
      {
        "length": 32,
        "start": 4375
      },
      {
        "length": 32,
        "start": 7988
      },
      {
        "length": 32,
        "start": 8773
      },
      {
        "length": 32,
        "start": 10610
      },
      {
        "length": 32,
        "start": 10835
      },
      {
        "length": 32,
        "start": 12985
      },
      {
        "length": 32,
        "start": 13972
      },
      {
        "length": 32,
        "start": 15976
      },
      {
        "length": 32,
        "start": 18312
      },
      {
        "length": 32,
        "start": 18578
      },
      {
        "length": 32,
        "start": 18813
      },
      {
        "length": 32,
        "start": 19486
      },
      {
        "length": 32,
        "start": 19782
      },
      {
        "length": 32,
        "start": 20065
      }
    ],
    "3617": [
      {
        "length": 32,
        "start": 3967
      },
      {
        "length": 32,
        "start": 4320
      },
      {
        "length": 32,
        "start": 5882
      },
      {
        "length": 32,
        "start": 7022
      },
      {
        "length": 32,
        "start": 12688
      },
      {
        "length": 32,
        "start": 13087
      },
      {
        "length": 32,
        "start": 13444
      },
      {
        "length": 32,
        "start": 14074
      }
    ],
    "3619": [
      {
        "length": 32,
        "start": 4052
      },
      {
        "length": 32,
        "start": 5969
      },
      {
        "length": 32,
        "start": 6706
      },
      {
        "length": 32,
        "start": 11639
      },
      {
        "length": 32,
        "start": 12773
      },
      {
        "length": 32,
        "start": 13172
      },
      {
        "length": 32,
        "start": 13531
      },
      {
        "length": 32,
        "start": 14159
      }
    ],
    "3621": [
      {
        "length": 32,
        "start": 11340
      },
      {
        "length": 32,
        "start": 17540
      }
    ]
  },
  "source": "// SPDX-License-Identifier: Unlicense\r\n\r\npragma solidity 0.7.6;\r\n\r\nimport \"@openzeppelin/contracts/math/Math.sol\";\r\nimport \"@openzeppelin/contracts/math/SafeMath.sol\";\r\nimport \"@openzeppelin/contracts/token/ERC20/ERC20.sol\";\r\nimport \"@openzeppelin/contracts/token/ERC20/IERC20.sol\";\r\nimport \"@openzeppelin/contracts/token/ERC20/SafeERC20.sol\";\r\nimport \"@openzeppelin/contracts/utils/ReentrancyGuard.sol\";\r\nimport \"@uniswap/v3-core/contracts/interfaces/callback/IUniswapV3MintCallback.sol\";\r\nimport \"@uniswap/v3-core/contracts/interfaces/callback/IUniswapV3SwapCallback.sol\";\r\nimport \"@uniswap/v3-core/contracts/interfaces/IUniswapV3Pool.sol\";\r\nimport \"@uniswap/v3-core/contracts/libraries/TickMath.sol\";\r\nimport \"@uniswap/v3-periphery/contracts/libraries/LiquidityAmounts.sol\";\r\nimport \"@uniswap/v3-periphery/contracts/libraries/PositionKey.sol\";\r\n\r\nimport \"../interfaces/IVault.sol\";\r\n\r\n/**\r\n * @title   UniswapV3 Vault\r\n * @notice  A vault that provides liquidity on Uniswap V3.\r\n */\r\ncontract UniswapV3Vault is\r\n    IVault,\r\n    IUniswapV3MintCallback,\r\n    IUniswapV3SwapCallback,\r\n    ERC20,\r\n    ReentrancyGuard\r\n{\r\n    using SafeERC20 for IERC20;\r\n    using SafeMath for uint256;\r\n\r\n    event Deposit(\r\n        address indexed sender,\r\n        address indexed to,\r\n        uint256 shares,\r\n        uint256 amount0,\r\n        uint256 amount1\r\n    );\r\n\r\n    event Withdraw(\r\n        address indexed sender,\r\n        address indexed to,\r\n        uint256 shares,\r\n        uint256 amount0,\r\n        uint256 amount1\r\n    );\r\n\r\n    event CollectFees(\r\n        uint256 feesToVault0,\r\n        uint256 feesToVault1,\r\n        uint256 feesToProtocol0,\r\n        uint256 feesToProtocol1\r\n    );\r\n\r\n    event Snapshot(int24 tick, uint256 totalAmount0, uint256 totalAmount1, uint256 totalSupply);\r\n\r\n    IUniswapV3Pool public immutable pool;\r\n    IERC20 public immutable token0;\r\n    IERC20 public immutable token1;\r\n    int24 public immutable tickSpacing;\r\n\r\n    uint256 public protocolFee;\r\n    uint256 public maxTotalSupply;\r\n    address public manager;\r\n    address public governance;\r\n    address public pendingGovernance;\r\n\r\n    int24 public baseLower;\r\n    int24 public baseUpper;\r\n    int24 public limitLower;\r\n    int24 public limitUpper;\r\n    uint256 public accruedProtocolFees0;\r\n    uint256 public accruedProtocolFees1;\r\n\r\n    /**\r\n     * @dev After deploying, manager needs to be set via `setManager()`\r\n     * @param _pool Underlying Uniswap V3 pool\r\n     * @param _protocolFee Protocol fee expressed as multiple of 1e-6\r\n     * @param _maxTotalSupply Cap on total supply\r\n     */\r\n    constructor(\r\n        address _pool,\r\n        uint256 _protocolFee,\r\n        uint256 _maxTotalSupply,\r\n        address _governance\r\n    ) ERC20(\"UniswapV3 Vault\", \"UV\") {\r\n        pool = IUniswapV3Pool(_pool);\r\n        token0 = IERC20(IUniswapV3Pool(_pool).token0());\r\n        token1 = IERC20(IUniswapV3Pool(_pool).token1());\r\n        tickSpacing = IUniswapV3Pool(_pool).tickSpacing();\r\n\r\n        protocolFee = _protocolFee;\r\n        maxTotalSupply = _maxTotalSupply;\r\n        governance = _governance;\r\n\r\n        require(_protocolFee < 1e6, \"protocolFee\");\r\n    }\r\n\r\n    /**\r\n     * @notice Deposits tokens in proportion to the vault's current holdings.\r\n     * @dev These tokens sit in the vault and are not used for liquidity on\r\n     * Uniswap until the next rebalance. Also note it's not necessary to check\r\n     * if user manipulated price to deposit cheaper, as the value of range\r\n     * orders can only by manipulated higher.\r\n     * @param amount0Desired Max amount of token0 to deposit\r\n     * @param amount1Desired Max amount of token1 to deposit\r\n     * @param amount0Min Revert if resulting `amount0` is less than this\r\n     * @param amount1Min Revert if resulting `amount1` is less than this\r\n     * @param to Recipient of shares\r\n     * @return shares Number of shares minted\r\n     * @return amount0 Amount of token0 deposited\r\n     * @return amount1 Amount of token1 deposited\r\n     */\r\n    function deposit(\r\n        uint256 amount0Desired,\r\n        uint256 amount1Desired,\r\n        uint256 amount0Min,\r\n        uint256 amount1Min,\r\n        address to\r\n    )\r\n        external\r\n        override\r\n        nonReentrant\r\n        returns (\r\n            uint256 shares,\r\n            uint256 amount0,\r\n            uint256 amount1\r\n        )\r\n    {\r\n        require(amount0Desired > 0 || amount1Desired > 0, \"amount0Desired or amount1Desired\");\r\n        require(to != address(0) && to != address(this), \"to\");\r\n\r\n        // Poke positions so vault's current holdings are up-to-date\r\n        _poke(baseLower, baseUpper);\r\n        _poke(limitLower, limitUpper);\r\n\r\n        // Calculate amounts proportional to vault's holdings\r\n        (shares, amount0, amount1) = _calcSharesAndAmounts(amount0Desired, amount1Desired);\r\n        require(shares > 0, \"shares\");\r\n        require(amount0 >= amount0Min, \"amount0Min\");\r\n        require(amount1 >= amount1Min, \"amount1Min\");\r\n\r\n        // Pull in tokens from sender\r\n        if (amount0 > 0) token0.safeTransferFrom(msg.sender, address(this), amount0);\r\n        if (amount1 > 0) token1.safeTransferFrom(msg.sender, address(this), amount1);\r\n\r\n        // Mint shares to recipient\r\n        _mint(to, shares);\r\n        emit Deposit(msg.sender, to, shares, amount0, amount1);\r\n        require(totalSupply() <= maxTotalSupply, \"maxTotalSupply\");\r\n    }\r\n\r\n    /// @dev Do zero-burns to poke a position on Uniswap so earned fees are\r\n    /// updated. Should be called if total amounts needs to include up-to-date\r\n    /// fees.\r\n    function _poke(int24 tickLower, int24 tickUpper) internal {\r\n        (uint128 liquidity, , , , ) = _position(tickLower, tickUpper);\r\n        if (liquidity > 0) {\r\n            pool.burn(tickLower, tickUpper, 0);\r\n        }\r\n    }\r\n\r\n    /// @dev Calculates the largest possible `amount0` and `amount1` such that\r\n    /// they're in the same proportion as total amounts, but not greater than\r\n    /// `amount0Desired` and `amount1Desired` respectively.\r\n    function _calcSharesAndAmounts(uint256 amount0Desired, uint256 amount1Desired)\r\n        internal\r\n        view\r\n        returns (\r\n            uint256 shares,\r\n            uint256 amount0,\r\n            uint256 amount1\r\n        )\r\n    {\r\n        uint256 totalSupply = totalSupply();\r\n        (uint256 total0, uint256 total1) = getTotalAmounts();\r\n\r\n        // If total supply > 0, vault can't be empty\r\n        assert(totalSupply == 0 || total0 > 0 || total1 > 0);\r\n\r\n        if (totalSupply == 0) {\r\n            // For first deposit, just use the amounts desired\r\n            amount0 = amount0Desired;\r\n            amount1 = amount1Desired;\r\n            shares = Math.max(amount0, amount1);\r\n        } else if (total0 == 0) {\r\n            amount1 = amount1Desired;\r\n            shares = amount1.mul(totalSupply).div(total1);\r\n        } else if (total1 == 0) {\r\n            amount0 = amount0Desired;\r\n            shares = amount0.mul(totalSupply).div(total0);\r\n        } else {\r\n            uint256 cross = Math.min(amount0Desired.mul(total1), amount1Desired.mul(total0));\r\n            require(cross > 0, \"cross\");\r\n\r\n            // Round up amounts\r\n            amount0 = cross.sub(1).div(total1).add(1);\r\n            amount1 = cross.sub(1).div(total0).add(1);\r\n            shares = cross.mul(totalSupply).div(total0).div(total1);\r\n        }\r\n    }\r\n\r\n    /**\r\n     * @notice Withdraws tokens in proportion to the vault's holdings.\r\n     * @param shares Shares burned by sender\r\n     * @param amount0Min Revert if resulting `amount0` is smaller than this\r\n     * @param amount1Min Revert if resulting `amount1` is smaller than this\r\n     * @param to Recipient of tokens\r\n     * @return amount0 Amount of token0 sent to recipient\r\n     * @return amount1 Amount of token1 sent to recipient\r\n     */\r\n    function withdraw(\r\n        uint256 shares,\r\n        uint256 amount0Min,\r\n        uint256 amount1Min,\r\n        address to\r\n    ) \r\n        external \r\n        nonReentrant \r\n        override\r\n        returns (uint256 amount0, uint256 amount1) {\r\n        require(shares > 0, \"shares\");\r\n        require(to != address(0) && to != address(this), \"to\");\r\n        uint256 totalSupply = totalSupply();\r\n\r\n        // Burn shares\r\n        _burn(msg.sender, shares);\r\n\r\n        // Calculate token amounts proportional to unused balances\r\n        uint256 unusedAmount0 = getBalance0().mul(shares).div(totalSupply);\r\n        uint256 unusedAmount1 = getBalance1().mul(shares).div(totalSupply);\r\n\r\n        // Withdraw proportion of liquidity from Uniswap pool\r\n        (uint256 baseAmount0, uint256 baseAmount1) =\r\n            _burnLiquidityShare(baseLower, baseUpper, shares, totalSupply);\r\n        (uint256 limitAmount0, uint256 limitAmount1) =\r\n            _burnLiquidityShare(limitLower, limitUpper, shares, totalSupply);\r\n\r\n        // Sum up total amounts owed to recipient\r\n        amount0 = unusedAmount0.add(baseAmount0).add(limitAmount0);\r\n        amount1 = unusedAmount1.add(baseAmount1).add(limitAmount1);\r\n        require(amount0 >= amount0Min, \"amount0Min\");\r\n        require(amount1 >= amount1Min, \"amount1Min\");\r\n\r\n        // Push tokens to recipient\r\n        if (amount0 > 0) token0.safeTransfer(to, amount0);\r\n        if (amount1 > 0) token1.safeTransfer(to, amount1);\r\n\r\n        emit Withdraw(msg.sender, to, shares, amount0, amount1);\r\n    }\r\n\r\n    /// @dev Withdraws share of liquidity in a range from Uniswap pool.\r\n    function _burnLiquidityShare(\r\n        int24 tickLower,\r\n        int24 tickUpper,\r\n        uint256 shares,\r\n        uint256 totalSupply\r\n    ) internal returns (uint256 amount0, uint256 amount1) {\r\n        (uint128 totalLiquidity, , , , ) = _position(tickLower, tickUpper);\r\n        uint256 liquidity = uint256(totalLiquidity).mul(shares).div(totalSupply);\r\n\r\n        if (liquidity > 0) {\r\n            (uint256 burned0, uint256 burned1, uint256 fees0, uint256 fees1) =\r\n                _burnAndCollect(tickLower, tickUpper, _toUint128(liquidity));\r\n\r\n            // Add share of fees\r\n            amount0 = burned0.add(fees0.mul(shares).div(totalSupply));\r\n            amount1 = burned1.add(fees1.mul(shares).div(totalSupply));\r\n        }\r\n    }\r\n\r\n    /**\r\n     * @notice Updates vault's positions. Can only be called by the manager.\r\n     * @dev Two orders are placed - a base order and a limit order. The base\r\n     * order is placed first with as much liquidity as possible. This order\r\n     * should use up all of one token, leaving only the other one. This excess\r\n     * amount is then placed as a single-sided bid or ask order.\r\n     */\r\n    function rebalance(\r\n        int256 swapAmount,\r\n        uint160 sqrtPriceLimitX96,\r\n        int24 _baseLower,\r\n        int24 _baseUpper,\r\n        int24 _bidLower,\r\n        int24 _bidUpper,\r\n        int24 _askLower,\r\n        int24 _askUpper\r\n    ) \r\n        external \r\n        override\r\n        nonReentrant {\r\n        require(msg.sender == manager, \"manager\");\r\n        _checkRange(_baseLower, _baseUpper);\r\n        _checkRange(_bidLower, _bidUpper);\r\n        _checkRange(_askLower, _askUpper);\r\n\r\n        (, int24 tick, , , , , ) = pool.slot0();\r\n        require(_bidUpper <= tick, \"bidUpper\");\r\n        require(_askLower > tick, \"askLower\"); // inequality is strict as tick is rounded down\r\n\r\n        // Withdraw all current liquidity from Uniswap pool\r\n        {\r\n            (uint128 baseLiquidity, , , , ) = _position(baseLower, baseUpper);\r\n            (uint128 limitLiquidity, , , , ) = _position(limitLower, limitUpper);\r\n            _burnAndCollect(baseLower, baseUpper, baseLiquidity);\r\n            _burnAndCollect(limitLower, limitUpper, limitLiquidity);\r\n        }\r\n\r\n        // Emit snapshot to record balances and supply\r\n        uint256 balance0 = getBalance0();\r\n        uint256 balance1 = getBalance1();\r\n        emit Snapshot(tick, balance0, balance1, totalSupply());\r\n\r\n        if (swapAmount != 0) {\r\n            pool.swap(\r\n                address(this),\r\n                swapAmount > 0,\r\n                swapAmount > 0 ? swapAmount : -swapAmount,\r\n                sqrtPriceLimitX96,\r\n                \"\"\r\n            );\r\n            balance0 = getBalance0();\r\n            balance1 = getBalance1();\r\n        }\r\n\r\n        // Place base order on Uniswap\r\n        uint128 liquidity = _liquidityForAmounts(_baseLower, _baseUpper, balance0, balance1);\r\n        _mintLiquidity(_baseLower, _baseUpper, liquidity);\r\n        (baseLower, baseUpper) = (_baseLower, _baseUpper);\r\n\r\n        balance0 = getBalance0();\r\n        balance1 = getBalance1();\r\n\r\n        // Place bid or ask order on Uniswap depending on which token is left\r\n        uint128 bidLiquidity = _liquidityForAmounts(_bidLower, _bidUpper, balance0, balance1);\r\n        uint128 askLiquidity = _liquidityForAmounts(_askLower, _askUpper, balance0, balance1);\r\n        if (bidLiquidity > askLiquidity) {\r\n            _mintLiquidity(_bidLower, _bidUpper, bidLiquidity);\r\n            (limitLower, limitUpper) = (_bidLower, _bidUpper);\r\n        } else {\r\n            _mintLiquidity(_askLower, _askUpper, askLiquidity);\r\n            (limitLower, limitUpper) = (_askLower, _askUpper);\r\n        }\r\n    }\r\n\r\n    function _checkRange(int24 tickLower, int24 tickUpper) internal view {\r\n        int24 _tickSpacing = tickSpacing;\r\n        require(tickLower < tickUpper, \"tickLower < tickUpper\");\r\n        require(tickLower >= TickMath.MIN_TICK, \"tickLower too low\");\r\n        require(tickUpper <= TickMath.MAX_TICK, \"tickUpper too high\");\r\n        require(tickLower % _tickSpacing == 0, \"tickLower % tickSpacing\");\r\n        require(tickUpper % _tickSpacing == 0, \"tickUpper % tickSpacing\");\r\n    }\r\n\r\n    /// @dev Withdraws liquidity from a range and collects all fees in the\r\n    /// process.\r\n    function _burnAndCollect(\r\n        int24 tickLower,\r\n        int24 tickUpper,\r\n        uint128 liquidity\r\n    )\r\n        internal\r\n        returns (\r\n            uint256 burned0,\r\n            uint256 burned1,\r\n            uint256 feesToVault0,\r\n            uint256 feesToVault1\r\n        )\r\n    {\r\n        if (liquidity > 0) {\r\n            (burned0, burned1) = pool.burn(tickLower, tickUpper, liquidity);\r\n        }\r\n\r\n        // Collect all owed tokens including earned fees\r\n        (uint256 collect0, uint256 collect1) =\r\n            pool.collect(\r\n                address(this),\r\n                tickLower,\r\n                tickUpper,\r\n                type(uint128).max,\r\n                type(uint128).max\r\n            );\r\n\r\n        feesToVault0 = collect0.sub(burned0);\r\n        feesToVault1 = collect1.sub(burned1);\r\n        uint256 feesToProtocol0;\r\n        uint256 feesToProtocol1;\r\n\r\n        // Update accrued protocol fees\r\n        uint256 _protocolFee = protocolFee;\r\n        if (_protocolFee > 0) {\r\n            feesToProtocol0 = feesToVault0.mul(_protocolFee).div(1e6);\r\n            feesToProtocol1 = feesToVault1.mul(_protocolFee).div(1e6);\r\n            feesToVault0 = feesToVault0.sub(feesToProtocol0);\r\n            feesToVault1 = feesToVault1.sub(feesToProtocol1);\r\n            accruedProtocolFees0 = accruedProtocolFees0.add(feesToProtocol0);\r\n            accruedProtocolFees1 = accruedProtocolFees1.add(feesToProtocol1);\r\n        }\r\n        emit CollectFees(feesToVault0, feesToVault1, feesToProtocol0, feesToProtocol1);\r\n    }\r\n\r\n    /// @dev Deposits liquidity in a range on the Uniswap pool.\r\n    function _mintLiquidity(\r\n        int24 tickLower,\r\n        int24 tickUpper,\r\n        uint128 liquidity\r\n    ) internal {\r\n        if (liquidity > 0) {\r\n            pool.mint(address(this), tickLower, tickUpper, liquidity, \"\");\r\n        }\r\n    }\r\n\r\n    /**\r\n     * @notice Calculates the vault's total holdings of token0 and token1 - in\r\n     * other words, how much of each token the vault would hold if it withdrew\r\n     * all its liquidity from Uniswap.\r\n     */\r\n    function getTotalAmounts() public view override returns (uint256 total0, uint256 total1) {\r\n        (uint256 baseAmount0, uint256 baseAmount1) = getPositionAmounts(baseLower, baseUpper);\r\n        (uint256 limitAmount0, uint256 limitAmount1) =\r\n            getPositionAmounts(limitLower, limitUpper);\r\n        total0 = getBalance0().add(baseAmount0).add(limitAmount0);\r\n        total1 = getBalance1().add(baseAmount1).add(limitAmount1);\r\n    }\r\n\r\n    /**\r\n     * @notice Amounts of token0 and token1 held in vault's position. Includes\r\n     * owed fees but excludes the proportion of fees that will be paid to the\r\n     * protocol. Doesn't include fees accrued since last poke.\r\n     */\r\n    function getPositionAmounts(int24 tickLower, int24 tickUpper)\r\n        public\r\n        view\r\n        returns (uint256 amount0, uint256 amount1)\r\n    {\r\n        (uint128 liquidity, , , uint128 tokensOwed0, uint128 tokensOwed1) =\r\n            _position(tickLower, tickUpper);\r\n        (amount0, amount1) = _amountsForLiquidity(tickLower, tickUpper, liquidity);\r\n\r\n        // Subtract protocol fees\r\n        uint256 oneMinusFee = uint256(1e6).sub(protocolFee);\r\n        amount0 = amount0.add(uint256(tokensOwed0).mul(oneMinusFee).div(1e6));\r\n        amount1 = amount1.add(uint256(tokensOwed1).mul(oneMinusFee).div(1e6));\r\n    }\r\n\r\n    /**\r\n     * @notice Balance of token0 in vault not used in any position.\r\n     */\r\n    function getBalance0() public view returns (uint256) {\r\n        return token0.balanceOf(address(this)).sub(accruedProtocolFees0);\r\n    }\r\n\r\n    /**\r\n     * @notice Balance of token1 in vault not used in any position.\r\n     */\r\n    function getBalance1() public view returns (uint256) {\r\n        return token1.balanceOf(address(this)).sub(accruedProtocolFees1);\r\n    }\r\n\r\n    /// @dev Wrapper around `IUniswapV3Pool.positions()`.\r\n    function _position(int24 tickLower, int24 tickUpper)\r\n        internal\r\n        view\r\n        returns (\r\n            uint128,\r\n            uint256,\r\n            uint256,\r\n            uint128,\r\n            uint128\r\n        )\r\n    {\r\n        bytes32 positionKey = PositionKey.compute(address(this), tickLower, tickUpper);\r\n        return pool.positions(positionKey);\r\n    }\r\n\r\n    /// @dev Wrapper around `LiquidityAmounts.getAmountsForLiquidity()`.\r\n    function _amountsForLiquidity(\r\n        int24 tickLower,\r\n        int24 tickUpper,\r\n        uint128 liquidity\r\n    ) internal view returns (uint256, uint256) {\r\n        (uint160 sqrtRatioX96, , , , , , ) = pool.slot0();\r\n        return\r\n            LiquidityAmounts.getAmountsForLiquidity(\r\n                sqrtRatioX96,\r\n                TickMath.getSqrtRatioAtTick(tickLower),\r\n                TickMath.getSqrtRatioAtTick(tickUpper),\r\n                liquidity\r\n            );\r\n    }\r\n\r\n    /// @dev Wrapper around `LiquidityAmounts.getLiquidityForAmounts()`.\r\n    function _liquidityForAmounts(\r\n        int24 tickLower,\r\n        int24 tickUpper,\r\n        uint256 amount0,\r\n        uint256 amount1\r\n    ) internal view returns (uint128) {\r\n        (uint160 sqrtRatioX96, , , , , , ) = pool.slot0();\r\n        return\r\n            LiquidityAmounts.getLiquidityForAmounts(\r\n                sqrtRatioX96,\r\n                TickMath.getSqrtRatioAtTick(tickLower),\r\n                TickMath.getSqrtRatioAtTick(tickUpper),\r\n                amount0,\r\n                amount1\r\n            );\r\n    }\r\n\r\n    /// @dev Casts uint256 to uint128 with overflow check.\r\n    function _toUint128(uint256 x) internal pure returns (uint128) {\r\n        assert(x <= type(uint128).max);\r\n        return uint128(x);\r\n    }\r\n\r\n    /// @dev Callback for Uniswap V3 pool.\r\n    function uniswapV3MintCallback(\r\n        uint256 amount0,\r\n        uint256 amount1,\r\n        bytes calldata data\r\n    ) external override {\r\n        require(msg.sender == address(pool));\r\n        if (amount0 > 0) token0.safeTransfer(msg.sender, amount0);\r\n        if (amount1 > 0) token1.safeTransfer(msg.sender, amount1);\r\n    }\r\n\r\n    /// @dev Callback for Uniswap V3 pool.\r\n    function uniswapV3SwapCallback(\r\n        int256 amount0Delta,\r\n        int256 amount1Delta,\r\n        bytes calldata data\r\n    ) external override {\r\n        require(msg.sender == address(pool));\r\n        if (amount0Delta > 0) token0.safeTransfer(msg.sender, uint256(amount0Delta));\r\n        if (amount1Delta > 0) token1.safeTransfer(msg.sender, uint256(amount1Delta));\r\n    }\r\n\r\n    /**\r\n     * @notice Used to collect accumulated protocol fees.\r\n     */\r\n    function collectProtocol(\r\n        uint256 amount0,\r\n        uint256 amount1,\r\n        address to\r\n    ) external onlyGovernance {\r\n        accruedProtocolFees0 = accruedProtocolFees0.sub(amount0);\r\n        accruedProtocolFees1 = accruedProtocolFees1.sub(amount1);\r\n        if (amount0 > 0) token0.safeTransfer(to, amount0);\r\n        if (amount1 > 0) token1.safeTransfer(to, amount1);\r\n    }\r\n\r\n    /**\r\n     * @notice Removes tokens accidentally sent to this vault.\r\n     */\r\n    function sweep(\r\n        IERC20 token,\r\n        uint256 amount,\r\n        address to\r\n    ) external onlyGovernance {\r\n        require(token != token0 && token != token1, \"token\");\r\n        token.safeTransfer(to, amount);\r\n    }\r\n\r\n    /**\r\n     * @notice Used to set the manager contract that determines the position\r\n     * ranges and calls rebalance(). Must be called after this vault is\r\n     * deployed.\r\n     */\r\n    function setManager(address _manager) external onlyGovernance {\r\n        manager = _manager;\r\n    }\r\n\r\n    /**\r\n     * @notice Used to change the protocol fee charged on pool fees earned from\r\n     * Uniswap, expressed as multiple of 1e-6.\r\n     */\r\n    function setProtocolFee(uint256 _protocolFee) external onlyGovernance {\r\n        require(_protocolFee < 1e6, \"protocolFee\");\r\n        protocolFee = _protocolFee;\r\n    }\r\n\r\n    /**\r\n     * @notice Used to change deposit cap for a guarded launch or to ensure\r\n     * vault doesn't grow too large relative to the pool. Cap is on total\r\n     * supply rather than amounts of token0 and token1 as those amounts\r\n     * fluctuate naturally over time.\r\n     */\r\n    function setMaxTotalSupply(uint256 _maxTotalSupply) external onlyGovernance {\r\n        maxTotalSupply = _maxTotalSupply;\r\n    }\r\n\r\n    /**\r\n     * @notice Removes liquidity in case of emergency.\r\n     */\r\n    function emergencyBurn(\r\n        int24 tickLower,\r\n        int24 tickUpper,\r\n        uint128 liquidity\r\n    ) external onlyGovernance {\r\n        pool.burn(tickLower, tickUpper, liquidity);\r\n        pool.collect(address(this), tickLower, tickUpper, type(uint128).max, type(uint128).max);\r\n    }\r\n\r\n    /**\r\n     * @notice Governance address is not updated until the new governance\r\n     * address has called `acceptGovernance()` to accept this responsibility.\r\n     */\r\n    function setGovernance(address _governance) external onlyGovernance {\r\n        pendingGovernance = _governance;\r\n    }\r\n\r\n    /**\r\n     * @notice `setGovernance()` should be called by the existing governance\r\n     * address prior to calling this function.\r\n     */\r\n    function acceptGovernance() external {\r\n        require(msg.sender == pendingGovernance, \"pendingGovernance\");\r\n        governance = msg.sender;\r\n    }\r\n\r\n    modifier onlyGovernance {\r\n        require(msg.sender == governance, \"governance\");\r\n        _;\r\n    }\r\n}\r\n",
  "sourcePath": "C:\\Users\\admin\\Documents\\smart_contract_tasks\\uniswap-v3-deltafi\\contracts\\libraries\\UniswapV3Vault.sol",
  "compiler": {
    "name": "solc",
    "version": "0.7.6+commit.7338295f.Emscripten.clang"
  },
  "schemaVersion": "3.4.2",
  "updatedAt": "2021-08-13T18:37:00.996Z",
  "devdoc": {
    "kind": "dev",
    "methods": {
      "allowance(address,address)": {
        "details": "See {IERC20-allowance}."
      },
      "approve(address,uint256)": {
        "details": "See {IERC20-approve}. Requirements: - `spender` cannot be the zero address."
      },
      "balanceOf(address)": {
        "details": "See {IERC20-balanceOf}."
      },
      "constructor": {
        "details": "After deploying, manager needs to be set via `setManager()`",
        "params": {
          "_maxTotalSupply": "Cap on total supply",
          "_pool": "Underlying Uniswap V3 pool",
          "_protocolFee": "Protocol fee expressed as multiple of 1e-6"
        }
      },
      "decimals()": {
        "details": "Returns the number of decimals used to get its user representation. For example, if `decimals` equals `2`, a balance of `505` tokens should be displayed to a user as `5,05` (`505 / 10 ** 2`). Tokens usually opt for a value of 18, imitating the relationship between Ether and Wei. This is the value {ERC20} uses, unless {_setupDecimals} is called. NOTE: This information is only used for _display_ purposes: it in no way affects any of the arithmetic of the contract, including {IERC20-balanceOf} and {IERC20-transfer}."
      },
      "decreaseAllowance(address,uint256)": {
        "details": "Atomically decreases the allowance granted to `spender` by the caller. This is an alternative to {approve} that can be used as a mitigation for problems described in {IERC20-approve}. Emits an {Approval} event indicating the updated allowance. Requirements: - `spender` cannot be the zero address. - `spender` must have allowance for the caller of at least `subtractedValue`."
      },
      "deposit(uint256,uint256,uint256,uint256,address)": {
        "details": "These tokens sit in the vault and are not used for liquidity on Uniswap until the next rebalance. Also note it's not necessary to check if user manipulated price to deposit cheaper, as the value of range orders can only by manipulated higher.",
        "params": {
          "amount0Desired": "Max amount of token0 to deposit",
          "amount0Min": "Revert if resulting `amount0` is less than this",
          "amount1Desired": "Max amount of token1 to deposit",
          "amount1Min": "Revert if resulting `amount1` is less than this",
          "to": "Recipient of shares"
        },
        "returns": {
          "amount0": "Amount of token0 deposited",
          "amount1": "Amount of token1 deposited",
          "shares": "Number of shares minted"
        }
      },
      "increaseAllowance(address,uint256)": {
        "details": "Atomically increases the allowance granted to `spender` by the caller. This is an alternative to {approve} that can be used as a mitigation for problems described in {IERC20-approve}. Emits an {Approval} event indicating the updated allowance. Requirements: - `spender` cannot be the zero address."
      },
      "name()": {
        "details": "Returns the name of the token."
      },
      "rebalance(int256,uint160,int24,int24,int24,int24,int24,int24)": {
        "details": "Two orders are placed - a base order and a limit order. The base order is placed first with as much liquidity as possible. This order should use up all of one token, leaving only the other one. This excess amount is then placed as a single-sided bid or ask order."
      },
      "symbol()": {
        "details": "Returns the symbol of the token, usually a shorter version of the name."
      },
      "totalSupply()": {
        "details": "See {IERC20-totalSupply}."
      },
      "transfer(address,uint256)": {
        "details": "See {IERC20-transfer}. Requirements: - `recipient` cannot be the zero address. - the caller must have a balance of at least `amount`."
      },
      "transferFrom(address,address,uint256)": {
        "details": "See {IERC20-transferFrom}. Emits an {Approval} event indicating the updated allowance. This is not required by the EIP. See the note at the beginning of {ERC20}. Requirements: - `sender` and `recipient` cannot be the zero address. - `sender` must have a balance of at least `amount`. - the caller must have allowance for ``sender``'s tokens of at least `amount`."
      },
      "uniswapV3MintCallback(uint256,uint256,bytes)": {
        "details": "Callback for Uniswap V3 pool."
      },
      "uniswapV3SwapCallback(int256,int256,bytes)": {
        "details": "Callback for Uniswap V3 pool."
      },
      "withdraw(uint256,uint256,uint256,address)": {
        "params": {
          "amount0Min": "Revert if resulting `amount0` is smaller than this",
          "amount1Min": "Revert if resulting `amount1` is smaller than this",
          "shares": "Shares burned by sender",
          "to": "Recipient of tokens"
        },
        "returns": {
          "amount0": "Amount of token0 sent to recipient",
          "amount1": "Amount of token1 sent to recipient"
        }
      }
    },
    "title": "UniswapV3 Vault",
    "version": 1
  },
  "userdoc": {
    "kind": "user",
    "methods": {
      "acceptGovernance()": {
        "notice": "`setGovernance()` should be called by the existing governance address prior to calling this function."
      },
      "collectProtocol(uint256,uint256,address)": {
        "notice": "Used to collect accumulated protocol fees."
      },
      "deposit(uint256,uint256,uint256,uint256,address)": {
        "notice": "Deposits tokens in proportion to the vault's current holdings."
      },
      "emergencyBurn(int24,int24,uint128)": {
        "notice": "Removes liquidity in case of emergency."
      },
      "getBalance0()": {
        "notice": "Balance of token0 in vault not used in any position."
      },
      "getBalance1()": {
        "notice": "Balance of token1 in vault not used in any position."
      },
      "getPositionAmounts(int24,int24)": {
        "notice": "Amounts of token0 and token1 held in vault's position. Includes owed fees but excludes the proportion of fees that will be paid to the protocol. Doesn't include fees accrued since last poke."
      },
      "getTotalAmounts()": {
        "notice": "Calculates the vault's total holdings of token0 and token1 - in other words, how much of each token the vault would hold if it withdrew all its liquidity from Uniswap."
      },
      "rebalance(int256,uint160,int24,int24,int24,int24,int24,int24)": {
        "notice": "Updates vault's positions. Can only be called by the manager."
      },
      "setGovernance(address)": {
        "notice": "Governance address is not updated until the new governance address has called `acceptGovernance()` to accept this responsibility."
      },
      "setManager(address)": {
        "notice": "Used to set the manager contract that determines the position ranges and calls rebalance(). Must be called after this vault is deployed."
      },
      "setMaxTotalSupply(uint256)": {
        "notice": "Used to change deposit cap for a guarded launch or to ensure vault doesn't grow too large relative to the pool. Cap is on total supply rather than amounts of token0 and token1 as those amounts fluctuate naturally over time."
      },
      "setProtocolFee(uint256)": {
        "notice": "Used to change the protocol fee charged on pool fees earned from Uniswap, expressed as multiple of 1e-6."
      },
      "sweep(address,uint256,address)": {
        "notice": "Removes tokens accidentally sent to this vault."
      },
      "withdraw(uint256,uint256,uint256,address)": {
        "notice": "Withdraws tokens in proportion to the vault's holdings."
      }
    },
    "notice": "A vault that provides liquidity on Uniswap V3.",
    "version": 1
  }
}