{
  "contractName": "UniswapV3VaultManager",
  "abi": [
    {
      "inputs": [
        {
          "internalType": "address",
          "name": "_vault",
          "type": "address"
        },
        {
          "internalType": "int24",
          "name": "_baseThreshold",
          "type": "int24"
        },
        {
          "internalType": "int24",
          "name": "_limitThreshold",
          "type": "int24"
        },
        {
          "internalType": "uint256",
          "name": "_period",
          "type": "uint256"
        },
        {
          "internalType": "int24",
          "name": "_minTickMove",
          "type": "int24"
        },
        {
          "internalType": "int24",
          "name": "_maxTwapDeviation",
          "type": "int24"
        },
        {
          "internalType": "uint32",
          "name": "_twapDuration",
          "type": "uint32"
        },
        {
          "internalType": "address",
          "name": "_keeper",
          "type": "address"
        }
      ],
      "stateMutability": "nonpayable",
      "type": "constructor"
    },
    {
      "inputs": [],
      "name": "baseThreshold",
      "outputs": [
        {
          "internalType": "int24",
          "name": "",
          "type": "int24"
        }
      ],
      "stateMutability": "view",
      "type": "function"
    },
    {
      "inputs": [],
      "name": "keeper",
      "outputs": [
        {
          "internalType": "address",
          "name": "",
          "type": "address"
        }
      ],
      "stateMutability": "view",
      "type": "function"
    },
    {
      "inputs": [],
      "name": "lastTick",
      "outputs": [
        {
          "internalType": "int24",
          "name": "",
          "type": "int24"
        }
      ],
      "stateMutability": "view",
      "type": "function"
    },
    {
      "inputs": [],
      "name": "lastTimestamp",
      "outputs": [
        {
          "internalType": "uint256",
          "name": "",
          "type": "uint256"
        }
      ],
      "stateMutability": "view",
      "type": "function"
    },
    {
      "inputs": [],
      "name": "limitThreshold",
      "outputs": [
        {
          "internalType": "int24",
          "name": "",
          "type": "int24"
        }
      ],
      "stateMutability": "view",
      "type": "function"
    },
    {
      "inputs": [],
      "name": "maxTwapDeviation",
      "outputs": [
        {
          "internalType": "int24",
          "name": "",
          "type": "int24"
        }
      ],
      "stateMutability": "view",
      "type": "function"
    },
    {
      "inputs": [],
      "name": "minTickMove",
      "outputs": [
        {
          "internalType": "int24",
          "name": "",
          "type": "int24"
        }
      ],
      "stateMutability": "view",
      "type": "function"
    },
    {
      "inputs": [],
      "name": "period",
      "outputs": [
        {
          "internalType": "uint256",
          "name": "",
          "type": "uint256"
        }
      ],
      "stateMutability": "view",
      "type": "function"
    },
    {
      "inputs": [],
      "name": "pool",
      "outputs": [
        {
          "internalType": "contract IUniswapV3Pool",
          "name": "",
          "type": "address"
        }
      ],
      "stateMutability": "view",
      "type": "function"
    },
    {
      "inputs": [],
      "name": "tickSpacing",
      "outputs": [
        {
          "internalType": "int24",
          "name": "",
          "type": "int24"
        }
      ],
      "stateMutability": "view",
      "type": "function"
    },
    {
      "inputs": [],
      "name": "twapDuration",
      "outputs": [
        {
          "internalType": "uint32",
          "name": "",
          "type": "uint32"
        }
      ],
      "stateMutability": "view",
      "type": "function"
    },
    {
      "inputs": [],
      "name": "vault",
      "outputs": [
        {
          "internalType": "contract UniswapV3Vault",
          "name": "",
          "type": "address"
        }
      ],
      "stateMutability": "view",
      "type": "function"
    },
    {
      "inputs": [],
      "name": "rebalance",
      "outputs": [],
      "stateMutability": "nonpayable",
      "type": "function"
    },
    {
      "inputs": [],
      "name": "shouldRebalance",
      "outputs": [
        {
          "internalType": "bool",
          "name": "",
          "type": "bool"
        }
      ],
      "stateMutability": "view",
      "type": "function"
    },
    {
      "inputs": [],
      "name": "getTwap",
      "outputs": [
        {
          "internalType": "int24",
          "name": "",
          "type": "int24"
        }
      ],
      "stateMutability": "view",
      "type": "function"
    },
    {
      "inputs": [
        {
          "internalType": "address",
          "name": "_keeper",
          "type": "address"
        }
      ],
      "name": "setKeeper",
      "outputs": [],
      "stateMutability": "nonpayable",
      "type": "function"
    },
    {
      "inputs": [
        {
          "internalType": "int24",
          "name": "_baseThreshold",
          "type": "int24"
        }
      ],
      "name": "setBaseThreshold",
      "outputs": [],
      "stateMutability": "nonpayable",
      "type": "function"
    },
    {
      "inputs": [
        {
          "internalType": "int24",
          "name": "_limitThreshold",
          "type": "int24"
        }
      ],
      "name": "setLimitThreshold",
      "outputs": [],
      "stateMutability": "nonpayable",
      "type": "function"
    },
    {
      "inputs": [
        {
          "internalType": "uint256",
          "name": "_period",
          "type": "uint256"
        }
      ],
      "name": "setPeriod",
      "outputs": [],
      "stateMutability": "nonpayable",
      "type": "function"
    },
    {
      "inputs": [
        {
          "internalType": "int24",
          "name": "_minTickMove",
          "type": "int24"
        }
      ],
      "name": "setMinTickMove",
      "outputs": [],
      "stateMutability": "nonpayable",
      "type": "function"
    },
    {
      "inputs": [
        {
          "internalType": "int24",
          "name": "_maxTwapDeviation",
          "type": "int24"
        }
      ],
      "name": "setMaxTwapDeviation",
      "outputs": [],
      "stateMutability": "nonpayable",
      "type": "function"
    },
    {
      "inputs": [
        {
          "internalType": "uint32",
          "name": "_twapDuration",
          "type": "uint32"
        }
      ],
      "name": "setTwapDuration",
      "outputs": [],
      "stateMutability": "nonpayable",
      "type": "function"
    }
  ],
  "bytecode": "0x60e06040523480156200001157600080fd5b50604051620025383803806200253883398181016040526101008110156200003857600080fd5b81019080805190602001909291908051906020019092919080519060200190929190805190602001909291908051906020019092919080519060200190929190805190602001909291908051906020019092919050505060008873ffffffffffffffffffffffffffffffffffffffff166316f0115b6040518163ffffffff1660e01b815260040160206040518083038186803b158015620000d857600080fd5b505afa158015620000ed573d6000803e3d6000fd5b505050506040513d60208110156200010457600080fd5b8101908080519060200190929190505050905060008173ffffffffffffffffffffffffffffffffffffffff1663d0c93a7c6040518163ffffffff1660e01b815260040160206040518083038186803b1580156200016057600080fd5b505afa15801562000175573d6000803e3d6000fd5b505050506040513d60208110156200018c57600080fd5b810190808051906020019092919050505090508973ffffffffffffffffffffffffffffffffffffffff1660808173ffffffffffffffffffffffffffffffffffffffff1660601b815250508173ffffffffffffffffffffffffffffffffffffffff1660a08173ffffffffffffffffffffffffffffffffffffffff1660601b815250508060020b60c08160020b60e81b81525050886000806101000a81548162ffffff021916908360020b62ffffff16021790555087600060036101000a81548162ffffff021916908360020b62ffffff1602179055508660018190555085600260006101000a81548162ffffff021916908360020b62ffffff16021790555084600260036101000a81548162ffffff021916908360020b62ffffff16021790555083600260066101000a81548163ffffffff021916908363ffffffff160217905550826002600a6101000a81548173ffffffffffffffffffffffffffffffffffffffff021916908373ffffffffffffffffffffffffffffffffffffffff1602179055506200032089826200053360201b60201c565b6200033288826200053360201b60201c565b60008660020b1215620003ad576040517f08c379a00000000000000000000000000000000000000000000000000000000081526004018080602001828103825260188152602001807f6d696e5469636b4d6f7665206d757374206265203e3d2030000000000000000081525060200191505060405180910390fd5b60008560020b121562000428576040517f08c379a000000000000000000000000000000000000000000000000000000000815260040180806020018281038252601d8152602001807f6d617854776170446576696174696f6e206d757374206265203e3d203000000081525060200191505060405180910390fd5b8173ffffffffffffffffffffffffffffffffffffffff16633850c7bd6040518163ffffffff1660e01b815260040160e06040518083038186803b1580156200046f57600080fd5b505afa15801562000484573d6000803e3d6000fd5b505050506040513d60e08110156200049b57600080fd5b810190808051906020019092919080519060200190929190805190602001909291908051906020019092919080519060200190929190805190602001909291908051906020019092919050505090919293949550909192935090919250909150905050600460008291906101000a81548162ffffff021916908360020b62ffffff1602179055505050505050505050505050620006bf565b60008260020b13620005ad576040517f08c379a00000000000000000000000000000000000000000000000000000000081526004018080602001828103825260158152602001807f7468726573686f6c64206d757374206265203e2030000000000000000000000081525060200191505060405180910390fd5b7ffffffffffffffffffffffffffffffffffffffffffffffffffffffffffff2761860000360020b8260020b13156200064d576040517f08c379a00000000000000000000000000000000000000000000000000000000081526004018080602001828103825260128152602001807f7468726573686f6c6420746f6f2068696768000000000000000000000000000081525060200191505060405180910390fd5b60008160020b8360020b816200065f57fe5b0760020b14620006bb576040517f08c379a00000000000000000000000000000000000000000000000000000000081526004018080602001828103825260298152602001806200250f6029913960400191505060405180910390fd5b5050565b60805160601c60a05160601c60c05160e81c611dbb6200075460003980610e5f528061112052806114245280611477528061162d52806118595280611a9d5280611adf5280611b2452508061061e52806109085280610d6b528061122a5250806104c0528061065e5280610b6a5280610e845280610fdb52806114e8528061167852806118965280611a765250611dbb6000f3fe608060405234801561001057600080fd5b50600436106101425760003560e01c8063a6329355116100b8578063c433c80a1161007c578063c433c80a146103c5578063d0c93a7c146103f9578063e7c7cb911461041a578063ef78d4fd1461043b578063f4005cae14610459578063fbfa77cf1461048a57610142565b8063a6329355146102ee578063a87bab9c1461031f578063aced166114610340578063ae2c1d5f14610374578063af7944801461039457610142565b80633cbff3fe1161010a5780633cbff3fe1461020c5780633dfa5d871461023d5780635d752a9a1461025e578063748747e61461027f5780637d7c2a1c146102c3578063854360ef146102cd57610142565b80630f3a9f651461014757806316c3e29d1461017557806316f0115b1461019657806319d8ac61146101ca57806326d89545146101e8575b600080fd5b6101736004803603602081101561015d57600080fd5b81019080803590602001909291905050506104be565b005b61017d610609565b604051808260020b815260200191505060405180910390f35b61019e61061c565b604051808273ffffffffffffffffffffffffffffffffffffffff16815260200191505060405180910390f35b6101d2610640565b6040518082815260200191505060405180910390f35b6101f0610646565b604051808263ffffffff16815260200191505060405180910390f35b61023b6004803603602081101561022257600080fd5b81019080803560020b906020019092919050505061065c565b005b61024561083c565b604051808260020b815260200191505060405180910390f35b61026661084f565b604051808260020b815260200191505060405180910390f35b6102c16004803603602081101561029557600080fd5b81019080803573ffffffffffffffffffffffffffffffffffffffff169060200190929190505050610b68565b005b6102cb610ced565b005b6102d5610fc6565b604051808260020b815260200191505060405180910390f35b61031d6004803603602081101561030457600080fd5b81019080803560020b9060200190929190505050610fd9565b005b610327611168565b604051808260020b815260200191505060405180910390f35b610348611179565b604051808273ffffffffffffffffffffffffffffffffffffffff16815260200191505060405180910390f35b61037c61119f565b60405180821515815260200191505060405180910390f35b6103c3600480360360208110156103aa57600080fd5b81019080803560020b90602001909291905050506114e6565b005b6103f7600480360360208110156103db57600080fd5b81019080803563ffffffff169060200190929190505050611676565b005b610401611857565b604051808260020b815260200191505060405180910390f35b61042261187b565b604051808260020b815260200191505060405180910390f35b61044361188e565b6040518082815260200191505060405180910390f35b6104886004803603602081101561046f57600080fd5b81019080803560020b9060200190929190505050611894565b005b610492611a74565b604051808273ffffffffffffffffffffffffffffffffffffffff16815260200191505060405180910390f35b7f000000000000000000000000000000000000000000000000000000000000000073ffffffffffffffffffffffffffffffffffffffff16635aa6e6756040518163ffffffff1660e01b815260040160206040518083038186803b15801561052457600080fd5b505afa158015610538573d6000803e3d6000fd5b505050506040513d602081101561054e57600080fd5b810190808051906020019092919050505073ffffffffffffffffffffffffffffffffffffffff163373ffffffffffffffffffffffffffffffffffffffff16146105ff576040517f08c379a000000000000000000000000000000000000000000000000000000000815260040180806020018281038252600a8152602001807f676f7665726e616e63650000000000000000000000000000000000000000000081525060200191505060405180910390fd5b8060018190555050565b600060039054906101000a900460020b81565b7f000000000000000000000000000000000000000000000000000000000000000081565b60035481565b600260069054906101000a900463ffffffff1681565b7f000000000000000000000000000000000000000000000000000000000000000073ffffffffffffffffffffffffffffffffffffffff16635aa6e6756040518163ffffffff1660e01b815260040160206040518083038186803b1580156106c257600080fd5b505afa1580156106d6573d6000803e3d6000fd5b505050506040513d60208110156106ec57600080fd5b810190808051906020019092919050505073ffffffffffffffffffffffffffffffffffffffff163373ffffffffffffffffffffffffffffffffffffffff161461079d576040517f08c379a000000000000000000000000000000000000000000000000000000000815260040180806020018281038252600a8152602001807f676f7665726e616e63650000000000000000000000000000000000000000000081525060200191505060405180910390fd5b60008160020b1215610817576040517f08c379a000000000000000000000000000000000000000000000000000000000815260040180806020018281038252601d8152602001807f6d617854776170446576696174696f6e206d757374206265203e3d203000000081525060200191505060405180910390fd5b80600260036101000a81548162ffffff021916908360020b62ffffff16021790555050565b600460009054906101000a900460020b81565b600080600260069054906101000a900463ffffffff1690506000600267ffffffffffffffff8111801561088157600080fd5b506040519080825280602002602001820160405280156108b05781602001602082028036833780820191505090505b50905081816000815181106108c157fe5b602002602001019063ffffffff16908163ffffffff16815250506000816001815181106108ea57fe5b602002602001019063ffffffff16908163ffffffff168152505060007f000000000000000000000000000000000000000000000000000000000000000073ffffffffffffffffffffffffffffffffffffffff1663883bdbfd836040518263ffffffff1660e01b81526004018080602001828103825283818151815260200191508051906020019060200280838360005b8381101561099557808201518184015260208101905061097a565b505050509050019250505060006040518083038186803b1580156109b857600080fd5b505afa1580156109cc573d6000803e3d6000fd5b505050506040513d6000823e3d601f19601f8201168201806040525060408110156109f657600080fd5b8101908080516040519392919084640100000000821115610a1657600080fd5b83820191506020820185811115610a2c57600080fd5b8251866020820283011164010000000082111715610a4957600080fd5b8083526020830192505050908051906020019060200280838360005b83811015610a80578082015181840152602081019050610a65565b5050505090500160405260200180516040519392919084640100000000821115610aa957600080fd5b83820191506020820185811115610abf57600080fd5b8251866020820283011164010000000082111715610adc57600080fd5b8083526020830192505050908051906020019060200280838360005b83811015610b13578082015181840152602081019050610af8565b505050509050016040525050505090508263ffffffff1681600081518110610b3757fe5b602002602001015182600181518110610b4c57fe5b60200260200101510360060b81610b5f57fe5b05935050505090565b7f000000000000000000000000000000000000000000000000000000000000000073ffffffffffffffffffffffffffffffffffffffff16635aa6e6756040518163ffffffff1660e01b815260040160206040518083038186803b158015610bce57600080fd5b505afa158015610be2573d6000803e3d6000fd5b505050506040513d6020811015610bf857600080fd5b810190808051906020019092919050505073ffffffffffffffffffffffffffffffffffffffff163373ffffffffffffffffffffffffffffffffffffffff1614610ca9576040517f08c379a000000000000000000000000000000000000000000000000000000000815260040180806020018281038252600a8152602001807f676f7665726e616e63650000000000000000000000000000000000000000000081525060200191505060405180910390fd5b806002600a6101000a81548173ffffffffffffffffffffffffffffffffffffffff021916908373ffffffffffffffffffffffffffffffffffffffff16021790555050565b610cf561119f565b610d67576040517f08c379a00000000000000000000000000000000000000000000000000000000081526004018080602001828103825260108152602001807f63616e6e6f7420726562616c616e63650000000000000000000000000000000081525060200191505060405180910390fd5b60007f000000000000000000000000000000000000000000000000000000000000000073ffffffffffffffffffffffffffffffffffffffff16633850c7bd6040518163ffffffff1660e01b815260040160e06040518083038186803b158015610dcf57600080fd5b505afa158015610de3573d6000803e3d6000fd5b505050506040513d60e0811015610df957600080fd5b810190808051906020019092919080519060200190929190805190602001909291908051906020019092919080519060200190929190805190602001909291908051906020019092919050505050505050509150506000610e5982611a98565b905060007f0000000000000000000000000000000000000000000000000000000000000000820190507f000000000000000000000000000000000000000000000000000000000000000073ffffffffffffffffffffffffffffffffffffffff166387e5e08360008060008054906101000a900460020b860360008054906101000a900460020b8601600060039054906101000a900460020b88038888600060039054906101000a900460020b8a016040518963ffffffff1660e01b8152600401808981526020018881526020018760020b81526020018660020b81526020018560020b81526020018460020b81526020018360020b81526020018260020b815260200198505050505050505050600060405180830381600087803b158015610f8057600080fd5b505af1158015610f94573d6000803e3d6000fd5b505050504260038190555082600460006101000a81548162ffffff021916908360020b62ffffff160217905550505050565b600260009054906101000a900460020b81565b7f000000000000000000000000000000000000000000000000000000000000000073ffffffffffffffffffffffffffffffffffffffff16635aa6e6756040518163ffffffff1660e01b815260040160206040518083038186803b15801561103f57600080fd5b505afa158015611053573d6000803e3d6000fd5b505050506040513d602081101561106957600080fd5b810190808051906020019092919050505073ffffffffffffffffffffffffffffffffffffffff163373ffffffffffffffffffffffffffffffffffffffff161461111a576040517f08c379a000000000000000000000000000000000000000000000000000000000815260040180806020018281038252600a8152602001807f676f7665726e616e63650000000000000000000000000000000000000000000081525060200191505060405180910390fd5b611144817f0000000000000000000000000000000000000000000000000000000000000000611b4d565b806000806101000a81548162ffffff021916908360020b62ffffff16021790555050565b60008054906101000a900460020b81565b6002600a9054906101000a900473ffffffffffffffffffffffffffffffffffffffff1681565b60006002600a9054906101000a900473ffffffffffffffffffffffffffffffffffffffff1673ffffffffffffffffffffffffffffffffffffffff163373ffffffffffffffffffffffffffffffffffffffff16146111ff57600090506114e3565b611216600154600354611cd490919063ffffffff16565b42101561122657600090506114e3565b60007f000000000000000000000000000000000000000000000000000000000000000073ffffffffffffffffffffffffffffffffffffffff16633850c7bd6040518163ffffffff1660e01b815260040160e06040518083038186803b15801561128e57600080fd5b505afa1580156112a2573d6000803e3d6000fd5b505050506040513d60e08110156112b857600080fd5b810190808051906020019092919080519060200190929190805190602001909291908051906020019092919080519060200190929190805190602001909291908051906020019092919050505050505050509150506000600460009054906101000a900460020b60020b8260020b136113425781600460009054906101000a900460020b03611355565b600460009054906101000a900460020b82035b9050600260009054906101000a900460020b60020b8160020b121561137f576000925050506114e3565b600061138961084f565b905060008160020b8460020b136113a2578382036113a6565b8184035b9050600260039054906101000a900460020b60020b8160020b13156113d25760009450505050506114e3565b60008060039054906101000a900460020b60020b60008054906101000a900460020b60020b1361141157600060039054906101000a900460020b611420565b60008054906101000a900460020b5b90507f0000000000000000000000000000000000000000000000000000000000000000817ffffffffffffffffffffffffffffffffffffffffffffffffffffffffffff27618010160020b8560020b12806114c657507f0000000000000000000000000000000000000000000000000000000000000000817ffffffffffffffffffffffffffffffffffffffffffffffffffffffffffff27618600003030360020b8560020b135b156114d9576000955050505050506114e3565b6001955050505050505b90565b7f000000000000000000000000000000000000000000000000000000000000000073ffffffffffffffffffffffffffffffffffffffff16635aa6e6756040518163ffffffff1660e01b815260040160206040518083038186803b15801561154c57600080fd5b505afa158015611560573d6000803e3d6000fd5b505050506040513d602081101561157657600080fd5b810190808051906020019092919050505073ffffffffffffffffffffffffffffffffffffffff163373ffffffffffffffffffffffffffffffffffffffff1614611627576040517f08c379a000000000000000000000000000000000000000000000000000000000815260040180806020018281038252600a8152602001807f676f7665726e616e63650000000000000000000000000000000000000000000081525060200191505060405180910390fd5b611651817f0000000000000000000000000000000000000000000000000000000000000000611b4d565b80600060036101000a81548162ffffff021916908360020b62ffffff16021790555050565b7f000000000000000000000000000000000000000000000000000000000000000073ffffffffffffffffffffffffffffffffffffffff16635aa6e6756040518163ffffffff1660e01b815260040160206040518083038186803b1580156116dc57600080fd5b505afa1580156116f0573d6000803e3d6000fd5b505050506040513d602081101561170657600080fd5b810190808051906020019092919050505073ffffffffffffffffffffffffffffffffffffffff163373ffffffffffffffffffffffffffffffffffffffff16146117b7576040517f08c379a000000000000000000000000000000000000000000000000000000000815260040180806020018281038252600a8152602001807f676f7665726e616e63650000000000000000000000000000000000000000000081525060200191505060405180910390fd5b60008163ffffffff1611611833576040517f08c379a00000000000000000000000000000000000000000000000000000000081526004018080602001828103825260188152602001807f747761704475726174696f6e206d757374206265203e2030000000000000000081525060200191505060405180910390fd5b80600260066101000a81548163ffffffff021916908363ffffffff16021790555050565b7f000000000000000000000000000000000000000000000000000000000000000081565b600260039054906101000a900460020b81565b60015481565b7f000000000000000000000000000000000000000000000000000000000000000073ffffffffffffffffffffffffffffffffffffffff16635aa6e6756040518163ffffffff1660e01b815260040160206040518083038186803b1580156118fa57600080fd5b505afa15801561190e573d6000803e3d6000fd5b505050506040513d602081101561192457600080fd5b810190808051906020019092919050505073ffffffffffffffffffffffffffffffffffffffff163373ffffffffffffffffffffffffffffffffffffffff16146119d5576040517f08c379a000000000000000000000000000000000000000000000000000000000815260040180806020018281038252600a8152602001807f676f7665726e616e63650000000000000000000000000000000000000000000081525060200191505060405180910390fd5b60008160020b1215611a4f576040517f08c379a00000000000000000000000000000000000000000000000000000000081526004018080602001828103825260188152602001807f6d696e5469636b4d6f7665206d757374206265203e3d2030000000000000000081525060200191505060405180910390fd5b80600260006101000a81548162ffffff021916908360020b62ffffff16021790555050565b7f000000000000000000000000000000000000000000000000000000000000000081565b6000807f000000000000000000000000000000000000000000000000000000000000000060020b8360020b81611aca57fe5b05905060008360020b128015611b13575060007f000000000000000000000000000000000000000000000000000000000000000060020b8460020b81611b0c57fe5b0760020b14155b15611b22578080600190039150505b7f00000000000000000000000000000000000000000000000000000000000000008102915050919050565b60008260020b13611bc6576040517f08c379a00000000000000000000000000000000000000000000000000000000081526004018080602001828103825260158152602001807f7468726573686f6c64206d757374206265203e2030000000000000000000000081525060200191505060405180910390fd5b7ffffffffffffffffffffffffffffffffffffffffffffffffffffffffffff2761860000360020b8260020b1315611c65576040517f08c379a00000000000000000000000000000000000000000000000000000000081526004018080602001828103825260128152602001807f7468726573686f6c6420746f6f2068696768000000000000000000000000000081525060200191505060405180910390fd5b60008160020b8360020b81611c7657fe5b0760020b14611cd0576040517f08c379a0000000000000000000000000000000000000000000000000000000008152600401808060200182810382526029815260200180611d5d6029913960400191505060405180910390fd5b5050565b600080828401905083811015611d52576040517f08c379a000000000000000000000000000000000000000000000000000000000815260040180806020018281038252601b8152602001807f536166654d6174683a206164646974696f6e206f766572666c6f77000000000081525060200191505060405180910390fd5b809150509291505056fe7468726573686f6c64206d757374206265206d756c7469706c65206f66207469636b53706163696e67a264697066735822122051d0d814b3a6ebb3c92197dc04837cd7ecb98ab338d91c9fd6d8b3d511397fe264736f6c634300070600337468726573686f6c64206d757374206265206d756c7469706c65206f66207469636b53706163696e67",
  "immutableReferences": {
    "5566": [
      {
        "length": 32,
        "start": 1216
      },
      {
        "length": 32,
        "start": 1630
      },
      {
        "length": 32,
        "start": 2922
      },
      {
        "length": 32,
        "start": 3716
      },
      {
        "length": 32,
        "start": 4059
      },
      {
        "length": 32,
        "start": 5352
      },
      {
        "length": 32,
        "start": 5752
      },
      {
        "length": 32,
        "start": 6294
      },
      {
        "length": 32,
        "start": 6774
      }
    ],
    "5568": [
      {
        "length": 32,
        "start": 1566
      },
      {
        "length": 32,
        "start": 2312
      },
      {
        "length": 32,
        "start": 3435
      },
      {
        "length": 32,
        "start": 4650
      }
    ],
    "5570": [
      {
        "length": 32,
        "start": 3679
      },
      {
        "length": 32,
        "start": 4384
      },
      {
        "length": 32,
        "start": 5156
      },
      {
        "length": 32,
        "start": 5239
      },
      {
        "length": 32,
        "start": 5677
      },
      {
        "length": 32,
        "start": 6233
      },
      {
        "length": 32,
        "start": 6813
      },
      {
        "length": 32,
        "start": 6879
      },
      {
        "length": 32,
        "start": 6948
      }
    ]
  },
  "source": "// SPDX-License-Identifier: Unlicense\r\n\r\npragma solidity 0.7.6;\r\n\r\nimport \"@openzeppelin/contracts/math/SafeMath.sol\";\r\nimport \"@uniswap/v3-core/contracts/interfaces/IUniswapV3Pool.sol\";\r\nimport \"@uniswap/v3-core/contracts/libraries/TickMath.sol\";\r\n\r\nimport \"./UniswapV3Vault.sol\";\r\nimport \"../interfaces/IVaultManager.sol\";\r\n\r\n/**\r\n * @title   Vault Manager\r\n * @notice  Rebalancing manager for UniswapV3 Vault that maintains the two\r\n *          following range orders:\r\n *\r\n *          1. Base order is placed between X - B and X + B + TS.\r\n *          2. Limit order is placed between X - L and X, or between X + TS\r\n *             and X + L + TS, depending on which token it holds more of.\r\n *\r\n *          where:\r\n *\r\n *              X = current tick rounded down to multiple of tick spacing\r\n *              TS = tick spacing\r\n *              B = base threshold\r\n *              L = limit threshold\r\n *\r\n *          Note that after these two orders, the vault should have deposited\r\n *          all its tokens and should only have a few wei left.\r\n *\r\n *          Because the limit order tries to sell whichever token the vault\r\n *          holds more of, the vault's holdings will have a tendency to get\r\n *          closer to a 1:1 balance. This enables it to continue providing\r\n *          liquidity without running out of inventory of either token, and\r\n *          achieves this without the need to swap directly on Uniswap and pay\r\n *          fees.\r\n */\r\ncontract UniswapV3VaultManager is IVaultManager {\r\n    using SafeMath for uint256;\r\n\r\n    UniswapV3Vault public immutable vault;\r\n    IUniswapV3Pool public immutable pool;\r\n    int24 public immutable tickSpacing;\r\n\r\n    int24 public baseThreshold;\r\n    int24 public limitThreshold;\r\n    uint256 public period;\r\n    int24 public minTickMove;\r\n    int24 public maxTwapDeviation;\r\n    uint32 public twapDuration;\r\n    address public keeper;\r\n\r\n    uint256 public lastTimestamp;\r\n    int24 public lastTick;\r\n\r\n    /**\r\n     * @param _vault Underlying UniswapV3  Vault\r\n     * @param _baseThreshold Used to determine base order range\r\n     * @param _limitThreshold Used to determine limit order range\r\n     * @param _period Can only rebalance if this length of time has passed\r\n     * @param _minTickMove Can only rebalance if price has moved at least this much\r\n     * @param _maxTwapDeviation Max deviation from TWAP during rebalance\r\n     * @param _twapDuration TWAP duration in seconds for deviation check\r\n     * @param _keeper Account that can call `rebalance()`\r\n     */\r\n    constructor(\r\n        address _vault,\r\n        int24 _baseThreshold,\r\n        int24 _limitThreshold,\r\n        uint256 _period,\r\n        int24 _minTickMove,\r\n        int24 _maxTwapDeviation,\r\n        uint32 _twapDuration,\r\n        address _keeper\r\n    ) {\r\n        IUniswapV3Pool _pool = UniswapV3Vault(_vault).pool();\r\n        int24 _tickSpacing = _pool.tickSpacing();\r\n\r\n        vault = UniswapV3Vault(_vault);\r\n        pool = _pool;\r\n        tickSpacing = _tickSpacing;\r\n\r\n        baseThreshold = _baseThreshold;\r\n        limitThreshold = _limitThreshold;\r\n        period = _period;\r\n        minTickMove = _minTickMove;\r\n        maxTwapDeviation = _maxTwapDeviation;\r\n        twapDuration = _twapDuration;\r\n        keeper = _keeper;\r\n\r\n        _checkThreshold(_baseThreshold, _tickSpacing);\r\n        _checkThreshold(_limitThreshold, _tickSpacing);\r\n        require(_minTickMove >= 0, \"minTickMove must be >= 0\");\r\n        require(_maxTwapDeviation >= 0, \"maxTwapDeviation must be >= 0\");\r\n        // require(_twapDuration > 0, \"twapDuration must be > 0\");\r\n\r\n        (, lastTick, , , , , ) = _pool.slot0();\r\n    }\r\n\r\n    /**\r\n     * @notice Calculates new ranges for orders and calls `vault.rebalance()`\r\n     * so that vault can update its positions. Can only be called by keeper.\r\n     */\r\n    function rebalance() external override {\r\n        require(shouldRebalance(), \"cannot rebalance\");\r\n        (, int24 tick, , , , , ) = pool.slot0();\r\n        int24 tickFloor = _floor(tick);\r\n        int24 tickCeil = tickFloor + tickSpacing;\r\n        \r\n        vault.rebalance(\r\n            0,\r\n            0,\r\n            tickFloor - baseThreshold,\r\n            tickCeil + baseThreshold,\r\n            tickFloor - limitThreshold,\r\n            tickFloor,\r\n            tickCeil,\r\n            tickCeil + limitThreshold\r\n        );\r\n\r\n        lastTimestamp = block.timestamp;\r\n        lastTick = tick;\r\n    }\r\n\r\n    function shouldRebalance() public view override returns (bool) {\r\n        // check called by keeper\r\n        if (msg.sender != keeper) {\r\n            return false;\r\n        }\r\n\r\n        // check enough time has passed\r\n        if (block.timestamp < lastTimestamp.add(period)) {\r\n            return false;\r\n        }\r\n\r\n        // check price has moved enough\r\n        (, int24 tick, , , , , ) = pool.slot0();\r\n        int24 tickMove = tick > lastTick ? tick - lastTick : lastTick - tick;\r\n        if (tickMove < minTickMove) {\r\n            return false;\r\n        }\r\n        \r\n        // check price near twap\r\n        int24 twap = getTwap();        \r\n        int24 twapDeviation = tick > twap ? tick - twap : twap - tick;\r\n        if (twapDeviation > maxTwapDeviation) {\r\n            return false;\r\n        }\r\n\r\n\r\n        // check price not too close to boundary\r\n        int24 maxThreshold = baseThreshold > limitThreshold ? baseThreshold : limitThreshold;\r\n        if (\r\n            tick < TickMath.MIN_TICK + maxThreshold + tickSpacing ||\r\n            tick > TickMath.MAX_TICK - maxThreshold - tickSpacing\r\n        ) {\r\n            return false;\r\n        }\r\n\r\n        return true;\r\n    }\r\n\r\n    /// @dev Fetches time-weighted average price in ticks from Uniswap pool.\r\n    function getTwap() public view returns (int24) {\r\n        uint32 _twapDuration = twapDuration;\r\n        uint32[] memory secondsAgo = new uint32[](2);\r\n        secondsAgo[0] = _twapDuration;\r\n        secondsAgo[1] = 0;        \r\n        (int56[] memory tickCumulatives, ) = pool.observe(secondsAgo);\r\n        return int24((tickCumulatives[1] - tickCumulatives[0]) / _twapDuration);\r\n    }\r\n\r\n    /// @dev Rounds tick down towards negative infinity so that it's a multiple\r\n    /// of `tickSpacing`.\r\n    function _floor(int24 tick) internal view returns (int24) {\r\n        int24 compressed = tick / tickSpacing;\r\n        if (tick < 0 && tick % tickSpacing != 0) compressed--;\r\n        return compressed * tickSpacing;\r\n    }\r\n\r\n    function _checkThreshold(int24 threshold, int24 _tickSpacing) internal pure {\r\n        require(threshold > 0, \"threshold must be > 0\");\r\n        require(threshold <= TickMath.MAX_TICK, \"threshold too high\");\r\n        require(threshold % _tickSpacing == 0, \"threshold must be multiple of tickSpacing\");\r\n    }\r\n\r\n    function setKeeper(address _keeper) external onlyGovernance {\r\n        keeper = _keeper;\r\n    }\r\n\r\n    function setBaseThreshold(int24 _baseThreshold) external onlyGovernance {\r\n        _checkThreshold(_baseThreshold, tickSpacing);\r\n        baseThreshold = _baseThreshold;\r\n    }\r\n\r\n    function setLimitThreshold(int24 _limitThreshold) external onlyGovernance {\r\n        _checkThreshold(_limitThreshold, tickSpacing);\r\n        limitThreshold = _limitThreshold;\r\n    }\r\n\r\n    function setPeriod(uint256 _period) external onlyGovernance {\r\n        period = _period;\r\n    }\r\n\r\n    function setMinTickMove(int24 _minTickMove) external onlyGovernance {\r\n        require(_minTickMove >= 0, \"minTickMove must be >= 0\");\r\n        minTickMove = _minTickMove;\r\n    }\r\n\r\n    function setMaxTwapDeviation(int24 _maxTwapDeviation) external onlyGovernance {\r\n        require(_maxTwapDeviation >= 0, \"maxTwapDeviation must be >= 0\");\r\n        maxTwapDeviation = _maxTwapDeviation;\r\n    }\r\n\r\n    function setTwapDuration(uint32 _twapDuration) external onlyGovernance {\r\n        require(_twapDuration > 0, \"twapDuration must be > 0\");\r\n        twapDuration = _twapDuration;\r\n    }\r\n\r\n    /// @dev Uses same governance as underlying vault.\r\n    modifier onlyGovernance {\r\n        require(msg.sender == vault.governance(), \"governance\");\r\n        _;\r\n    }\r\n}\r\n",
  "sourcePath": "C:\\Users\\admin\\Documents\\smart_contract_tasks\\uniswap-v3-deltafi\\contracts\\libraries\\UniswapV3VaultManager.sol",
  "compiler": {
    "name": "solc",
    "version": "0.7.6+commit.7338295f.Emscripten.clang"
  },
  "schemaVersion": "3.4.2",
  "updatedAt": "2021-08-18T13:11:40.450Z",
  "devdoc": {
    "kind": "dev",
    "methods": {
      "constructor": {
        "params": {
          "_baseThreshold": "Used to determine base order range",
          "_keeper": "Account that can call `rebalance()`",
          "_limitThreshold": "Used to determine limit order range",
          "_maxTwapDeviation": "Max deviation from TWAP during rebalance",
          "_minTickMove": "Can only rebalance if price has moved at least this much",
          "_period": "Can only rebalance if this length of time has passed",
          "_twapDuration": "TWAP duration in seconds for deviation check",
          "_vault": "Underlying UniswapV3  Vault"
        }
      },
      "getTwap()": {
        "details": "Fetches time-weighted average price in ticks from Uniswap pool."
      }
    },
    "title": "Vault Manager",
    "version": 1
  },
  "userdoc": {
    "kind": "user",
    "methods": {
      "rebalance()": {
        "notice": "Calculates new ranges for orders and calls `vault.rebalance()` so that vault can update its positions. Can only be called by keeper."
      }
    },
    "notice": "Rebalancing manager for UniswapV3 Vault that maintains the two          following range orders:          1. Base order is placed between X - B and X + B + TS.          2. Limit order is placed between X - L and X, or between X + TS             and X + L + TS, depending on which token it holds more of.          where:              X = current tick rounded down to multiple of tick spacing              TS = tick spacing              B = base threshold              L = limit threshold          Note that after these two orders, the vault should have deposited          all its tokens and should only have a few wei left.          Because the limit order tries to sell whichever token the vault          holds more of, the vault's holdings will have a tendency to get          closer to a 1:1 balance. This enables it to continue providing          liquidity without running out of inventory of either token, and          achieves this without the need to swap directly on Uniswap and pay          fees.",
    "version": 1
  }
}