{
  "contractName": "UniswapV3VaultFactory",
  "abi": [
    {
      "inputs": [
        {
          "internalType": "address",
          "name": "_uniswapV3Factory",
          "type": "address"
        }
      ],
      "stateMutability": "nonpayable",
      "type": "constructor"
    },
    {
      "anonymous": false,
      "inputs": [
        {
          "indexed": true,
          "internalType": "address",
          "name": "previousOwner",
          "type": "address"
        },
        {
          "indexed": true,
          "internalType": "address",
          "name": "newOwner",
          "type": "address"
        }
      ],
      "name": "OwnershipTransferred",
      "type": "event"
    },
    {
      "anonymous": false,
      "inputs": [
        {
          "indexed": false,
          "internalType": "address",
          "name": "firstToken",
          "type": "address"
        },
        {
          "indexed": false,
          "internalType": "address",
          "name": "secondToken",
          "type": "address"
        },
        {
          "indexed": false,
          "internalType": "uint24",
          "name": "fee",
          "type": "uint24"
        },
        {
          "indexed": false,
          "internalType": "address",
          "name": "uniswapV3Vault",
          "type": "address"
        },
        {
          "indexed": false,
          "internalType": "uint256",
          "name": "",
          "type": "uint256"
        }
      ],
      "name": "UniswapV3VaultsInitiated",
      "type": "event"
    },
    {
      "inputs": [
        {
          "internalType": "address",
          "name": "",
          "type": "address"
        },
        {
          "internalType": "address",
          "name": "",
          "type": "address"
        },
        {
          "internalType": "uint24",
          "name": "",
          "type": "uint24"
        }
      ],
      "name": "getUniswapV3Vaults",
      "outputs": [
        {
          "internalType": "address",
          "name": "",
          "type": "address"
        }
      ],
      "stateMutability": "view",
      "type": "function"
    },
    {
      "inputs": [],
      "name": "owner",
      "outputs": [
        {
          "internalType": "address",
          "name": "",
          "type": "address"
        }
      ],
      "stateMutability": "view",
      "type": "function"
    },
    {
      "inputs": [],
      "name": "renounceOwnership",
      "outputs": [],
      "stateMutability": "nonpayable",
      "type": "function"
    },
    {
      "inputs": [
        {
          "internalType": "address",
          "name": "newOwner",
          "type": "address"
        }
      ],
      "name": "transferOwnership",
      "outputs": [],
      "stateMutability": "nonpayable",
      "type": "function"
    },
    {
      "inputs": [],
      "name": "uniswapV3Factory",
      "outputs": [
        {
          "internalType": "contract IUniswapV3Factory",
          "name": "",
          "type": "address"
        }
      ],
      "stateMutability": "view",
      "type": "function"
    },
    {
      "inputs": [
        {
          "internalType": "address",
          "name": "tokenA",
          "type": "address"
        },
        {
          "internalType": "address",
          "name": "tokenB",
          "type": "address"
        },
        {
          "internalType": "uint24",
          "name": "fee",
          "type": "uint24"
        },
        {
          "internalType": "uint256",
          "name": "",
          "type": "uint256"
        }
      ],
      "name": "initiateUniswapV3Vault",
      "outputs": [
        {
          "internalType": "address",
          "name": "uniswapV3Vault",
          "type": "address"
        }
      ],
      "stateMutability": "nonpayable",
      "type": "function"
    },
    {
      "inputs": [],
      "name": "getAllUniswapV3Vaults",
      "outputs": [
        {
          "internalType": "address[]",
          "name": "",
          "type": "address[]"
        }
      ],
      "stateMutability": "view",
      "type": "function"
    }
  ],
  "bytecode": "0x608060405234801561001057600080fd5b506040516112f23803806112f28339818101604052602081101561003357600080fd5b8101908080519060200190929190505050600061005461013960201b60201c565b9050806000806101000a81548173ffffffffffffffffffffffffffffffffffffffff021916908373ffffffffffffffffffffffffffffffffffffffff1602179055508073ffffffffffffffffffffffffffffffffffffffff16600073ffffffffffffffffffffffffffffffffffffffff167f8be0079c531659141344cd1fd0a4f28419497f9722a3daafe3b4186f6b6457e060405160405180910390a35080600160006101000a81548173ffffffffffffffffffffffffffffffffffffffff021916908373ffffffffffffffffffffffffffffffffffffffff16021790555050610141565b600033905090565b6111a2806101506000396000f3fe608060405234801561001057600080fd5b506004361061007d5760003560e01c8063715018a61161005b578063715018a6146101b25780638da5cb5b146101bc578063ab7bda6a146101f0578063f2fde38b146102975761007d565b80633107d3e7146100825780634bd2cc321461011f5780635b5491821461017e575b600080fd5b6100f36004803603606081101561009857600080fd5b81019080803573ffffffffffffffffffffffffffffffffffffffff169060200190929190803573ffffffffffffffffffffffffffffffffffffffff169060200190929190803562ffffff1690602001909291905050506102db565b604051808273ffffffffffffffffffffffffffffffffffffffff16815260200191505060405180910390f35b61012761032a565b6040518080602001828103825283818151815260200191508051906020019060200280838360005b8381101561016a57808201518184015260208101905061014f565b505050509050019250505060405180910390f35b6101866103b8565b604051808273ffffffffffffffffffffffffffffffffffffffff16815260200191505060405180910390f35b6101ba6103de565b005b6101c461054b565b604051808273ffffffffffffffffffffffffffffffffffffffff16815260200191505060405180910390f35b61026b6004803603608081101561020657600080fd5b81019080803573ffffffffffffffffffffffffffffffffffffffff169060200190929190803573ffffffffffffffffffffffffffffffffffffffff169060200190929190803562ffffff16906020019092919080359060200190929190505050610574565b604051808273ffffffffffffffffffffffffffffffffffffffff16815260200191505060405180910390f35b6102d9600480360360208110156102ad57600080fd5b81019080803573ffffffffffffffffffffffffffffffffffffffff169060200190929190505050610f4c565b005b6002602052826000526040600020602052816000526040600020602052806000526040600020600092509250509054906101000a900473ffffffffffffffffffffffffffffffffffffffff1681565b606060038054806020026020016040519081016040528092919081815260200182805480156103ae57602002820191906000526020600020905b8160009054906101000a900473ffffffffffffffffffffffffffffffffffffffff1673ffffffffffffffffffffffffffffffffffffffff1681526020019060010190808311610364575b5050505050905090565b600160009054906101000a900473ffffffffffffffffffffffffffffffffffffffff1681565b6103e661113e565b73ffffffffffffffffffffffffffffffffffffffff1661040461054b565b73ffffffffffffffffffffffffffffffffffffffff161461048d576040517f08c379a00000000000000000000000000000000000000000000000000000000081526004018080602001828103825260208152602001807f4f776e61626c653a2063616c6c6572206973206e6f7420746865206f776e657281525060200191505060405180910390fd5b600073ffffffffffffffffffffffffffffffffffffffff1660008054906101000a900473ffffffffffffffffffffffffffffffffffffffff1673ffffffffffffffffffffffffffffffffffffffff167f8be0079c531659141344cd1fd0a4f28419497f9722a3daafe3b4186f6b6457e060405160405180910390a360008060006101000a81548173ffffffffffffffffffffffffffffffffffffffff021916908373ffffffffffffffffffffffffffffffffffffffff160217905550565b60008060009054906101000a900473ffffffffffffffffffffffffffffffffffffffff16905090565b600061057e61113e565b73ffffffffffffffffffffffffffffffffffffffff1661059c61054b565b73ffffffffffffffffffffffffffffffffffffffff1614610625576040517f08c379a00000000000000000000000000000000000000000000000000000000081526004018080602001828103825260208152602001807f4f776e61626c653a2063616c6c6572206973206e6f7420746865206f776e657281525060200191505060405180910390fd5b8373ffffffffffffffffffffffffffffffffffffffff168573ffffffffffffffffffffffffffffffffffffffff1614156106c7576040517f08c379a00000000000000000000000000000000000000000000000000000000081526004018080602001828103825260158152602001807f41646472657373206973206964656e746963616c21000000000000000000000081525060200191505060405180910390fd5b60008473ffffffffffffffffffffffffffffffffffffffff168673ffffffffffffffffffffffffffffffffffffffff16106107025784610704565b855b905060008573ffffffffffffffffffffffffffffffffffffffff168773ffffffffffffffffffffffffffffffffffffffff16106107415786610743565b855b90506000600160009054906101000a900473ffffffffffffffffffffffffffffffffffffffff1673ffffffffffffffffffffffffffffffffffffffff166322afcccb876040518263ffffffff1660e01b8152600401808262ffffff16815260200191505060206040518083038186803b1580156107bf57600080fd5b505afa1580156107d3573d6000803e3d6000fd5b505050506040513d60208110156107e957600080fd5b8101908080519060200190929190505050905060008160020b1415610876576040517f08c379a00000000000000000000000000000000000000000000000000000000081526004018080602001828103825260148152602001807f4665652063616e206e6f74206265207a65726f2100000000000000000000000081525060200191505060405180910390fd5b600073ffffffffffffffffffffffffffffffffffffffff168373ffffffffffffffffffffffffffffffffffffffff161415610919576040517f08c379a00000000000000000000000000000000000000000000000000000000081526004018080602001828103825260188152602001807f416464726573732063616e206e6f74206265207a65726f21000000000000000081525060200191505060405180910390fd5b600073ffffffffffffffffffffffffffffffffffffffff16600260008573ffffffffffffffffffffffffffffffffffffffff1673ffffffffffffffffffffffffffffffffffffffff16815260200190815260200160002060008473ffffffffffffffffffffffffffffffffffffffff1673ffffffffffffffffffffffffffffffffffffffff16815260200190815260200160002060008862ffffff1662ffffff16815260200190815260200160002060009054906101000a900473ffffffffffffffffffffffffffffffffffffffff1673ffffffffffffffffffffffffffffffffffffffff1614610a72576040517f08c379a00000000000000000000000000000000000000000000000000000000081526004018080602001828103825260208152602001807f556e697377617056335661756c7420616c7265616479206578697374696e672181525060200191505060405180910390fd5b6000600160009054906101000a900473ffffffffffffffffffffffffffffffffffffffff1673ffffffffffffffffffffffffffffffffffffffff16631698ee8285858a6040518463ffffffff1660e01b8152600401808473ffffffffffffffffffffffffffffffffffffffff1681526020018373ffffffffffffffffffffffffffffffffffffffff1681526020018262ffffff168152602001935050505060206040518083038186803b158015610b2857600080fd5b505afa158015610b3c573d6000803e3d6000fd5b505050506040513d6020811015610b5257600080fd5b81019080805190602001909291905050509050600073ffffffffffffffffffffffffffffffffffffffff168173ffffffffffffffffffffffffffffffffffffffff161415610c8e57600160009054906101000a900473ffffffffffffffffffffffffffffffffffffffff1673ffffffffffffffffffffffffffffffffffffffff1663a167129585858a6040518463ffffffff1660e01b8152600401808473ffffffffffffffffffffffffffffffffffffffff1681526020018373ffffffffffffffffffffffffffffffffffffffff1681526020018262ffffff1681526020019350505050602060405180830381600087803b158015610c5057600080fd5b505af1158015610c64573d6000803e3d6000fd5b505050506040513d6020811015610c7a57600080fd5b810190808051906020019092919050505090505b84600260008673ffffffffffffffffffffffffffffffffffffffff1673ffffffffffffffffffffffffffffffffffffffff16815260200190815260200160002060008573ffffffffffffffffffffffffffffffffffffffff1673ffffffffffffffffffffffffffffffffffffffff16815260200190815260200160002060008962ffffff1662ffffff16815260200190815260200160002060006101000a81548173ffffffffffffffffffffffffffffffffffffffff021916908373ffffffffffffffffffffffffffffffffffffffff16021790555084600260008573ffffffffffffffffffffffffffffffffffffffff1673ffffffffffffffffffffffffffffffffffffffff16815260200190815260200160002060008673ffffffffffffffffffffffffffffffffffffffff1673ffffffffffffffffffffffffffffffffffffffff16815260200190815260200160002060008962ffffff1662ffffff16815260200190815260200160002060006101000a81548173ffffffffffffffffffffffffffffffffffffffff021916908373ffffffffffffffffffffffffffffffffffffffff1602179055506003859080600181540180825580915050600190039060005260206000200160009091909190916101000a81548173ffffffffffffffffffffffffffffffffffffffff021916908373ffffffffffffffffffffffffffffffffffffffff1602179055507fa1d0684b03803b31e5f7b7777514afd1c0712552a2ba782fd1111ebc40331e1284848988600380549050604051808673ffffffffffffffffffffffffffffffffffffffff1681526020018573ffffffffffffffffffffffffffffffffffffffff1681526020018462ffffff1681526020018373ffffffffffffffffffffffffffffffffffffffff1681526020018281526020019550505050505060405180910390a150505050949350505050565b610f5461113e565b73ffffffffffffffffffffffffffffffffffffffff16610f7261054b565b73ffffffffffffffffffffffffffffffffffffffff1614610ffb576040517f08c379a00000000000000000000000000000000000000000000000000000000081526004018080602001828103825260208152602001807f4f776e61626c653a2063616c6c6572206973206e6f7420746865206f776e657281525060200191505060405180910390fd5b600073ffffffffffffffffffffffffffffffffffffffff168173ffffffffffffffffffffffffffffffffffffffff161415611081576040517f08c379a00000000000000000000000000000000000000000000000000000000081526004018080602001828103825260268152602001806111476026913960400191505060405180910390fd5b8073ffffffffffffffffffffffffffffffffffffffff1660008054906101000a900473ffffffffffffffffffffffffffffffffffffffff1673ffffffffffffffffffffffffffffffffffffffff167f8be0079c531659141344cd1fd0a4f28419497f9722a3daafe3b4186f6b6457e060405160405180910390a3806000806101000a81548173ffffffffffffffffffffffffffffffffffffffff021916908373ffffffffffffffffffffffffffffffffffffffff16021790555050565b60003390509056fe4f776e61626c653a206e6577206f776e657220697320746865207a65726f2061646472657373a26469706673582212201978fd73d31f8275c3540e93972e2a57900dfdb9531f2d8429ed32da8230ef6064736f6c63430007060033",
  "immutableReferences": {},
  "source": "// SPDX-License-Identifier: BUSL-1.1\r\n\r\npragma solidity 0.7.6;\r\n\r\nimport \"@uniswap/v3-core/contracts/interfaces/IUniswapV3Factory.sol\";\r\n// import \"@uniswap/v3-core/contracts/interfaces/IUniswapV3Pool.sol\";\r\nimport \"@uniswap/v3-core/contracts/libraries/TickMath.sol\";\r\n\r\nimport \"@openzeppelin/contracts/access/Ownable.sol\";\r\n\r\nimport \"./UniswapV3Vault.sol\";\r\n\r\ncontract UniswapV3VaultFactory is Ownable {\r\n    IUniswapV3Factory public uniswapV3Factory;\r\n    mapping(address => mapping(address => mapping(uint24 => address))) public getUniswapV3Vaults;\r\n\r\n    address[] private allUniswapV3Vaults;\r\n\r\n    /// @dev Emitted when a new UniswapV3Vault is initiated.\r\n    /// @param firstToken the token address 1\r\n    /// @param secondToken the token address 2\r\n    /// @param fee transaction fee\r\n    /// @param uniswapV3Vault the UniswapV3Vault address\r\n    event UniswapV3VaultsInitiated(address firstToken, address secondToken, uint24 fee, address uniswapV3Vault, uint256);\r\n\r\n    constructor(address _uniswapV3Factory) {\r\n        uniswapV3Factory = IUniswapV3Factory(_uniswapV3Factory);\r\n    }\r\n\r\n    /// @notice Initiate a new interest token contract\r\n    /// @param tokenA The first token address.\r\n    /// @param tokenB The second token address.\r\n    /// @param fee Transaction fee.\r\n    /// @return uniswapV3Vault The initiated interest token contract\r\n    function initiateUniswapV3Vault(address tokenA, address tokenB, uint24 fee, uint) external onlyOwner returns (address uniswapV3Vault) {\r\n        require(tokenA != tokenB, 'Address is identical!');\r\n        address firstToken = tokenA < tokenB ? tokenA : tokenB;\r\n        address secondToken = tokenA < tokenB ? tokenB : tokenA;\r\n\r\n        int24 tickSpacing = uniswapV3Factory.feeAmountTickSpacing(fee);\r\n        require(tickSpacing != 0, 'Fee can not be zero!');\r\n\r\n        require(firstToken != address(0), 'Address can not be zero!');\r\n\r\n        require(getUniswapV3Vaults[firstToken][secondToken][fee] == address(0), 'UniswapV3Vault already existing!');\r\n\r\n        address pool = uniswapV3Factory.getPool(firstToken, secondToken, fee);\r\n        /// If pool is empty, then create a new pool\r\n        if (pool == address(0)) {\r\n            pool = uniswapV3Factory.createPool(firstToken, secondToken, fee);\r\n        }\r\n        /// Initiate new vault\r\n        // uniswapV3Vault = address(\r\n        //     new UniswapV3Vault{salt: keccak256(abi.encodePacked(firstToken, secondToken, fee, tickSpacing))}(pool, owner())\r\n        // );\r\n\r\n        /// Update uniswapV3Vault and push to array - allUniswapV3Vaults that contains the whole vaults.\r\n        getUniswapV3Vaults[firstToken][secondToken][fee] = uniswapV3Vault;\r\n        getUniswapV3Vaults[secondToken][firstToken][fee] = uniswapV3Vault;\r\n        allUniswapV3Vaults.push(uniswapV3Vault);\r\n\r\n        /// Trigger event for notifying new vault is initiated\r\n        emit UniswapV3VaultsInitiated(firstToken, secondToken, fee, uniswapV3Vault, allUniswapV3Vaults.length);\r\n\r\n        return uniswapV3Vault;\r\n    }\r\n\r\n    function getAllUniswapV3Vaults() external view returns (address[] memory) {\r\n        return allUniswapV3Vaults;\r\n    }\r\n}\r\n",
  "sourcePath": "C:\\Users\\admin\\Documents\\smart_contract_tasks\\uniswap-v3-deltafi\\contracts\\libraries\\UniswapV3VaultFactory.sol",
  "compiler": {
    "name": "solc",
    "version": "0.7.6+commit.7338295f.Emscripten.clang"
  },
  "schemaVersion": "3.4.2",
  "updatedAt": "2021-08-16T13:17:40.688Z",
  "devdoc": {
    "events": {
      "UniswapV3VaultsInitiated(address,address,uint24,address,uint256)": {
        "details": "Emitted when a new UniswapV3Vault is initiated.",
        "params": {
          "fee": "transaction fee",
          "firstToken": "the token address 1",
          "secondToken": "the token address 2",
          "uniswapV3Vault": "the UniswapV3Vault address"
        }
      }
    },
    "kind": "dev",
    "methods": {
      "initiateUniswapV3Vault(address,address,uint24,uint256)": {
        "params": {
          "fee": "Transaction fee.",
          "tokenA": "The first token address.",
          "tokenB": "The second token address."
        },
        "returns": {
          "uniswapV3Vault": "The initiated interest token contract"
        }
      },
      "owner()": {
        "details": "Returns the address of the current owner."
      },
      "renounceOwnership()": {
        "details": "Leaves the contract without owner. It will not be possible to call `onlyOwner` functions anymore. Can only be called by the current owner. NOTE: Renouncing ownership will leave the contract without an owner, thereby removing any functionality that is only available to the owner."
      },
      "transferOwnership(address)": {
        "details": "Transfers ownership of the contract to a new account (`newOwner`). Can only be called by the current owner."
      }
    },
    "version": 1
  },
  "userdoc": {
    "kind": "user",
    "methods": {
      "initiateUniswapV3Vault(address,address,uint24,uint256)": {
        "notice": "Initiate a new interest token contract"
      }
    },
    "version": 1
  }
}